{
  "contractName": "Betting",
  "abi": [
    {
      "constant": true,
      "inputs": [],
      "name": "gamblerB",
      "outputs": [
        {
          "name": "",
          "type": "address"
        }
      ],
      "payable": false,
      "stateMutability": "view",
      "type": "function"
    },
    {
      "constant": true,
      "inputs": [],
      "name": "gamblerA",
      "outputs": [
        {
          "name": "",
          "type": "address"
        }
      ],
      "payable": false,
      "stateMutability": "view",
      "type": "function"
    },
    {
      "constant": true,
      "inputs": [],
      "name": "oracle",
      "outputs": [
        {
          "name": "",
          "type": "address"
        }
      ],
      "payable": false,
      "stateMutability": "view",
      "type": "function"
    },
    {
      "constant": true,
      "inputs": [],
      "name": "owner",
      "outputs": [
        {
          "name": "",
          "type": "address"
        }
      ],
      "payable": false,
      "stateMutability": "view",
      "type": "function"
    },
    {
      "constant": true,
      "inputs": [
        {
          "name": "",
          "type": "uint256"
        }
      ],
      "name": "outcomes",
      "outputs": [
        {
          "name": "",
          "type": "uint256"
        }
      ],
      "payable": false,
      "stateMutability": "view",
      "type": "function"
    },
    {
      "inputs": [
        {
          "name": "_outcomes",
          "type": "uint256[]"
        }
      ],
      "payable": false,
      "stateMutability": "nonpayable",
      "type": "constructor"
    },
    {
      "payable": true,
      "stateMutability": "payable",
      "type": "fallback"
    },
    {
      "anonymous": false,
      "inputs": [
        {
          "indexed": false,
          "name": "gambler",
          "type": "address"
        }
      ],
      "name": "BetMade",
      "type": "event"
    },
    {
      "anonymous": false,
      "inputs": [],
      "name": "BetClosed",
      "type": "event"
    },
    {
      "constant": false,
      "inputs": [
        {
          "name": "_oracle",
          "type": "address"
        }
      ],
      "name": "chooseOracle",
      "outputs": [
        {
          "name": "",
          "type": "address"
        }
      ],
      "payable": false,
      "stateMutability": "nonpayable",
      "type": "function"
    },
    {
      "constant": false,
      "inputs": [
        {
          "name": "_outcome",
          "type": "uint256"
        }
      ],
      "name": "makeBet",
      "outputs": [
        {
          "name": "",
          "type": "bool"
        }
      ],
      "payable": true,
      "stateMutability": "payable",
      "type": "function"
    },
    {
      "constant": false,
      "inputs": [
        {
          "name": "_outcome",
          "type": "uint256"
        }
      ],
      "name": "makeDecision",
      "outputs": [],
      "payable": false,
      "stateMutability": "nonpayable",
      "type": "function"
    },
    {
      "constant": false,
      "inputs": [
        {
          "name": "withdrawAmount",
          "type": "uint256"
        }
      ],
      "name": "withdraw",
      "outputs": [
        {
          "name": "",
          "type": "uint256"
        }
      ],
      "payable": false,
      "stateMutability": "nonpayable",
      "type": "function"
    },
    {
      "constant": true,
      "inputs": [
        {
          "name": "outcome",
          "type": "uint256"
        }
      ],
      "name": "checkOutcomes",
      "outputs": [
        {
          "name": "",
          "type": "uint256"
        }
      ],
      "payable": false,
      "stateMutability": "view",
      "type": "function"
    },
    {
      "constant": true,
      "inputs": [],
      "name": "checkWinnings",
      "outputs": [
        {
          "name": "",
          "type": "uint256"
        }
      ],
      "payable": false,
      "stateMutability": "view",
      "type": "function"
    },
    {
      "constant": false,
      "inputs": [],
      "name": "contractReset",
      "outputs": [],
      "payable": false,
      "stateMutability": "nonpayable",
      "type": "function"
    }
  ],
  "bytecode": "0x6060604052341561000f57600080fd5b6040516112b23803806112b2833981016040528080518201919050506000336000806101000a81548173ffffffffffffffffffffffffffffffffffffffff021916908373ffffffffffffffffffffffffffffffffffffffff160217905550600090505b81518110156100b757818181518110151561008957fe5b9060200190602002015160066000838152602001908152602001600020819055508080600101915050610072565b50506111ea806100c86000396000f3006060604052600436106100ba576000357c0100000000000000000000000000000000000000000000000000000000900463ffffffff168063113023ca146100bf5780631def0573146101145780632e1a7d4d146101695780635ee715d6146101a05780636d0b502f146101c9578063718cc769146102005780637dc0d1d01461023057806380c1367e146102855780638da5cb5b146102a8578063a7a5ce88146102fd578063d0aa7e2514610312578063eed2a1471461038b575b600080fd5b34156100ca57600080fd5b6100d26103c2565b604051808273ffffffffffffffffffffffffffffffffffffffff1673ffffffffffffffffffffffffffffffffffffffff16815260200191505060405180910390f35b341561011f57600080fd5b6101276103e8565b604051808273ffffffffffffffffffffffffffffffffffffffff1673ffffffffffffffffffffffffffffffffffffffff16815260200191505060405180910390f35b341561017457600080fd5b61018a600480803590602001909190505061040e565b6040518082815260200191505060405180910390f35b34156101ab57600080fd5b6101b361052d565b6040518082815260200191505060405180910390f35b34156101d457600080fd5b6101ea6004808035906020019091905050610574565b6040518082815260200191505060405180910390f35b6102166004808035906020019091905050610591565b604051808215151515815260200191505060405180910390f35b341561023b57600080fd5b610243610869565b604051808273ffffffffffffffffffffffffffffffffffffffff1673ffffffffffffffffffffffffffffffffffffffff16815260200191505060405180910390f35b341561029057600080fd5b6102a6600480803590602001909190505061088f565b005b34156102b357600080fd5b6102bb610f12565b604051808273ffffffffffffffffffffffffffffffffffffffff1673ffffffffffffffffffffffffffffffffffffffff16815260200191505060405180910390f35b341561030857600080fd5b610310610f37565b005b341561031d57600080fd5b610349600480803573ffffffffffffffffffffffffffffffffffffffff16906020019091905050611003565b604051808273ffffffffffffffffffffffffffffffffffffffff1673ffffffffffffffffffffffffffffffffffffffff16815260200191505060405180910390f35b341561039657600080fd5b6103ac6004808035906020019091905050611182565b6040518082815260200191505060405180910390f35b600260009054906101000a900473ffffffffffffffffffffffffffffffffffffffff1681565b600160009054906101000a900473ffffffffffffffffffffffffffffffffffffffff1681565b6000600560003373ffffffffffffffffffffffffffffffffffffffff1673ffffffffffffffffffffffffffffffffffffffff16815260200190815260200160002054821115156104e65781600560003373ffffffffffffffffffffffffffffffffffffffff1673ffffffffffffffffffffffffffffffffffffffff168152602001908152602001600020600082825403925050819055503373ffffffffffffffffffffffffffffffffffffffff166108fc839081150290604051600060405180830381858888f1935050505015156104e557600080fd5b5b600560003373ffffffffffffffffffffffffffffffffffffffff1673ffffffffffffffffffffffffffffffffffffffff168152602001908152602001600020549050919050565b6000600560003373ffffffffffffffffffffffffffffffffffffffff1673ffffffffffffffffffffffffffffffffffffffff16815260200190815260200160002054905090565b600060066000838152602001908152602001600020549050919050565b600061059b61119a565b60006105a684610574565b1115610855576060604051908101604052806006600086815260200190815260200160002054815260200134815260200160011515815250905080600460003373ffffffffffffffffffffffffffffffffffffffff1673ffffffffffffffffffffffffffffffffffffffff168152602001908152602001600020600082015181600001556020820151816001015560408201518160020160006101000a81548160ff0219169083151502179055509050506000600160009054906101000a900473ffffffffffffffffffffffffffffffffffffffff1673ffffffffffffffffffffffffffffffffffffffff1614156107415733600160006101000a81548173ffffffffffffffffffffffffffffffffffffffff021916908373ffffffffffffffffffffffffffffffffffffffff1602179055507fdcd2da66e8984bfcbbe0c67e276d4409dc4f49b29be35637f00eb421e60c010f33604051808273ffffffffffffffffffffffffffffffffffffffff1673ffffffffffffffffffffffffffffffffffffffff16815260200191505060405180910390a1610854565b6000600260009054906101000a900473ffffffffffffffffffffffffffffffffffffffff1673ffffffffffffffffffffffffffffffffffffffff1614156108535733600260006101000a81548173ffffffffffffffffffffffffffffffffffffffff021916908373ffffffffffffffffffffffffffffffffffffffff1602179055507f077212d4d7a1f32f5a1799a3b05e05b15f3ad33584b11615f0b68d9c4c03fd6260405160405180910390a17fdcd2da66e8984bfcbbe0c67e276d4409dc4f49b29be35637f00eb421e60c010f33604051808273ffffffffffffffffffffffffffffffffffffffff1673ffffffffffffffffffffffffffffffffffffffff16815260200191505060405180910390a15b5b5b600061086084610574565b11915050919050565b600360009054906101000a900473ffffffffffffffffffffffffffffffffffffffff1681565b60003373ffffffffffffffffffffffffffffffffffffffff16600360009054906101000a900473ffffffffffffffffffffffffffffffffffffffff1673ffffffffffffffffffffffffffffffffffffffff161415156108ed57600080fd5b816000600660008381526020019081526020016000205411151561091057600080fd5b60046000600160009054906101000a900473ffffffffffffffffffffffffffffffffffffffff1673ffffffffffffffffffffffffffffffffffffffff1673ffffffffffffffffffffffffffffffffffffffff16815260200190815260200160002060020160009054906101000a900460ff1680156109fc575060046000600260009054906101000a900473ffffffffffffffffffffffffffffffffffffffff1673ffffffffffffffffffffffffffffffffffffffff1673ffffffffffffffffffffffffffffffffffffffff16815260200190815260200160002060020160009054906101000a900460ff165b1515610a0757600080fd5b60046000600260009054906101000a900473ffffffffffffffffffffffffffffffffffffffff1673ffffffffffffffffffffffffffffffffffffffff1673ffffffffffffffffffffffffffffffffffffffff1681526020019081526020016000206001015460046000600160009054906101000a900473ffffffffffffffffffffffffffffffffffffffff1673ffffffffffffffffffffffffffffffffffffffff1673ffffffffffffffffffffffffffffffffffffffff1681526020019081526020016000206001015401915060046000600260009054906101000a900473ffffffffffffffffffffffffffffffffffffffff1673ffffffffffffffffffffffffffffffffffffffff1673ffffffffffffffffffffffffffffffffffffffff1681526020019081526020016000206000015460046000600160009054906101000a900473ffffffffffffffffffffffffffffffffffffffff1673ffffffffffffffffffffffffffffffffffffffff1673ffffffffffffffffffffffffffffffffffffffff168152602001908152602001600020600001541415610d4f5760046000600160009054906101000a900473ffffffffffffffffffffffffffffffffffffffff1673ffffffffffffffffffffffffffffffffffffffff1673ffffffffffffffffffffffffffffffffffffffff1681526020019081526020016000206001015460056000600160009054906101000a900473ffffffffffffffffffffffffffffffffffffffff1673ffffffffffffffffffffffffffffffffffffffff1673ffffffffffffffffffffffffffffffffffffffff1681526020019081526020016000206000828254019250508190555060046000600260009054906101000a900473ffffffffffffffffffffffffffffffffffffffff1673ffffffffffffffffffffffffffffffffffffffff1673ffffffffffffffffffffffffffffffffffffffff1681526020019081526020016000206001015460056000600260009054906101000a900473ffffffffffffffffffffffffffffffffffffffff1673ffffffffffffffffffffffffffffffffffffffff1673ffffffffffffffffffffffffffffffffffffffff16815260200190815260200160002060008282540192505081905550610f0d565b8260046000600160009054906101000a900473ffffffffffffffffffffffffffffffffffffffff1673ffffffffffffffffffffffffffffffffffffffff1673ffffffffffffffffffffffffffffffffffffffff168152602001908152602001600020600001541415610e2f578160056000600160009054906101000a900473ffffffffffffffffffffffffffffffffffffffff1673ffffffffffffffffffffffffffffffffffffffff1673ffffffffffffffffffffffffffffffffffffffff16815260200190815260200160002060008282540192505081905550610f0c565b8260046000600160009054906101000a900473ffffffffffffffffffffffffffffffffffffffff1673ffffffffffffffffffffffffffffffffffffffff1673ffffffffffffffffffffffffffffffffffffffff168152602001908152602001600020600001541415610f0b578160056000600260009054906101000a900473ffffffffffffffffffffffffffffffffffffffff1673ffffffffffffffffffffffffffffffffffffffff1673ffffffffffffffffffffffffffffffffffffffff168152602001908152602001600020600082825401925050819055505b5b5b505050565b6000809054906101000a900473ffffffffffffffffffffffffffffffffffffffff1681565b3373ffffffffffffffffffffffffffffffffffffffff166000809054906101000a900473ffffffffffffffffffffffffffffffffffffffff1673ffffffffffffffffffffffffffffffffffffffff16141515610f9257600080fd5b600160006101000a81549073ffffffffffffffffffffffffffffffffffffffff0219169055600260006101000a81549073ffffffffffffffffffffffffffffffffffffffff0219169055600360006101000a81549073ffffffffffffffffffffffffffffffffffffffff0219169055565b60003373ffffffffffffffffffffffffffffffffffffffff166000809054906101000a900473ffffffffffffffffffffffffffffffffffffffff1673ffffffffffffffffffffffffffffffffffffffff1614151561106057600080fd5b600160009054906101000a900473ffffffffffffffffffffffffffffffffffffffff1673ffffffffffffffffffffffffffffffffffffffff168273ffffffffffffffffffffffffffffffffffffffff161415801561110c5750600260009054906101000a900473ffffffffffffffffffffffffffffffffffffffff1673ffffffffffffffffffffffffffffffffffffffff168273ffffffffffffffffffffffffffffffffffffffff1614155b151561111757600080fd5b81600360006101000a81548173ffffffffffffffffffffffffffffffffffffffff021916908373ffffffffffffffffffffffffffffffffffffffff160217905550600360009054906101000a900473ffffffffffffffffffffffffffffffffffffffff169050919050565b60066020528060005260406000206000915090505481565b606060405190810160405280600081526020016000815260200160001515815250905600a165627a7a7230582059d0df69d60df02cf2c54ca242c3884f3c07bbb4c399689820e792ad2935eeb00029",
  "source": "pragma solidity 0.4.19;\r\n\r\n\r\ncontract Betting {\r\n    /* Constructor function, where owner and outcomes are set */\r\n    function Betting(uint[] _outcomes) public {\r\n      owner = msg.sender;\r\n      for (uint i = 0; i < _outcomes.length; i++) {\r\n            outcomes[i] = _outcomes[i];\r\n      }\r\n    }\r\n\r\n    /* Fallback function */\r\n    function() public payable {\r\n        revert();\r\n    }\r\n\r\n    /* Standard state variables */\r\n    address public owner;\r\n    address public gamblerA;\r\n    address public gamblerB;\r\n    address public oracle;\r\n\r\n    /* Structs are custom data structures with self-defined parameters */\r\n    struct Bet {\r\n        uint outcome;\r\n        uint amount;\r\n        bool initialized;\r\n    }\r\n\r\n    /* Keep track of every gambler's bet */\r\n    mapping (address => Bet) bets;\r\n    /* Keep track of every player's winnings (if any) */\r\n    mapping (address => uint) winnings;\r\n    /* Keep track of all outcomes (maps index to numerical outcome) */\r\n    mapping (uint => uint) public outcomes;\r\n\r\n    /* Add any events you think are necessary */\r\n    event BetMade(address gambler);\r\n    event BetClosed();\r\n\r\n    /* Uh Oh, what are these? */\r\n    modifier ownerOnly() {\r\n      require(owner == msg.sender);\r\n      _;\r\n    }\r\n    modifier oracleOnly() {\r\n      require(oracle == msg.sender);\r\n      _;\r\n    }\r\n    modifier outcomeExists(uint outcome) {\r\n      require(outcomes[outcome] > 0);\r\n      _;\r\n    }\r\n\r\n    /* Owner chooses their trusted Oracle */\r\n    function chooseOracle(address _oracle) public ownerOnly() returns (address) {\r\n      require(_oracle != gamblerA && _oracle != gamblerB);\r\n      oracle = _oracle;\r\n      return oracle;\r\n    }\r\n\r\n    /* Gamblers place their bets, preferably after calling checkOutcomes */\r\n    function makeBet(uint _outcome) public payable returns (bool) {\r\n      if (checkOutcomes(_outcome) > 0) {\r\n            Bet memory newBet = Bet(outcomes[_outcome], msg.value, true);\r\n            bets[msg.sender] = newBet;\r\n            if (gamblerA == 0) {\r\n              gamblerA = msg.sender;\r\n              BetMade(msg.sender);\r\n            }\r\n            else if (gamblerB == 0) {\r\n              gamblerB = msg.sender;\r\n              BetClosed();\r\n              BetMade(msg.sender);\r\n            }\r\n      }\r\n      return (checkOutcomes(_outcome) > 0);\r\n    }\r\n\r\n    /* The oracle chooses which outcome wins */\r\n    function makeDecision(uint _outcome) public oracleOnly() outcomeExists(_outcome) {\r\n      require(bets[gamblerA].initialized && bets[gamblerB].initialized);\r\n      uint winz = bets[gamblerA].amount + bets[gamblerB].amount;\r\n      /*not sure if we need this portion. Does this part make sense?*/\r\n      if (bets[gamblerA].outcome == bets[gamblerB].outcome) {\r\n            winnings[gamblerA] += bets[gamblerA].amount;\r\n            winnings[gamblerB] += bets[gamblerB].amount;\r\n      }\r\n      else if (bets[gamblerA].outcome == _outcome) {\r\n            winnings[gamblerA] += winz;\r\n      }\r\n      else if (bets[gamblerA].outcome == _outcome) {\r\n            winnings[gamblerB] += winz;\r\n      }\r\n\r\n    }\r\n\r\n    /* Allow anyone to withdraw their winnings safely (if they have enough) */\r\n    function withdraw(uint withdrawAmount) public returns (uint) {\r\n      if (withdrawAmount <= winnings[msg.sender]) {\r\n            winnings[msg.sender] -= withdrawAmount;\r\n            msg.sender.transfer(withdrawAmount);\r\n        }\r\n      return winnings[msg.sender];\r\n    }\r\n\r\n    /* Allow anyone to check the outcomes they can bet on */\r\n    function checkOutcomes(uint outcome) public view returns (uint) {\r\n      return outcomes[outcome];\r\n    }\r\n\r\n    /* Allow anyone to check if they won any bets */\r\n    function checkWinnings() public view returns(uint) {\r\n      return winnings[msg.sender];\r\n    }\r\n\r\n    /* Call delete() to reset certain state variables. Which ones? That's upto you to decide */\r\n    function contractReset() public ownerOnly() {\r\n      delete gamblerA;\r\n      delete gamblerB;\r\n      delete oracle;\r\n    }\r\n}\r\n",
  "sourcePath": "C:\\Users\\chinz_000\\Desktop\\Blockchain\\CS 198\\sp18-lab02\\Betting Contract\\contracts\\betting.sol",
  "compiler": {
    "name": "solc",
    "version": "0.4.19+commit.c4cbbb05.Emscripten.clang"
  },
  "schemaVersion": "1.0.1",
  "updatedAt": "2018-02-22T21:33:55.763Z"
}