{
  "contractName": "Concatenate",
  "abi": [
    {
      "constant": false,
      "inputs": [
        {
          "name": "_s",
          "type": "string"
        },
        {
          "name": "_t",
          "type": "string"
        }
      ],
      "name": "concatWithoutImport",
      "outputs": [
        {
          "name": "",
          "type": "string"
        }
      ],
      "payable": false,
      "stateMutability": "nonpayable",
      "type": "function"
    }
  ],
  "bytecode": "0x6060604052341561000f57600080fd5b6103968061001e6000396000f300606060405260043610610041576000357c0100000000000000000000000000000000000000000000000000000000900463ffffffff16806334d1460b14610046575b600080fd5b341561005157600080fd5b6100e4600480803590602001908201803590602001908080601f0160208091040260200160405190810160405280939291908181526020018383808284378201915050505050509190803590602001908201803590602001908080601f0160208091040260200160405190810160405280939291908181526020018383808284378201915050505050509190505061015f565b6040518080602001828103825283818151815260200191508051906020019080838360005b83811015610124578082015181840152602081019050610109565b50505050905090810190601f1680156101515780820380516001836020036101000a031916815260200191505b509250505060405180910390f35b610167610342565b61016f610356565b610177610356565b61017f610342565b610187610356565b600080600089965088955085518751016040518059106101a45750595b9080825280601f01601f1916602001820160405250945084935060009250600091505b865182101561027a5786828151811015156101de57fe5b9060200101517f010000000000000000000000000000000000000000000000000000000000000090047f010000000000000000000000000000000000000000000000000000000000000002848480600101955081518110151561023d57fe5b9060200101907effffffffffffffffffffffffffffffffffffffffffffffffffffffffffffff1916908160001a90535081806001019250506101c7565b600090505b855181101561033257858181518110151561029657fe5b9060200101517f010000000000000000000000000000000000000000000000000000000000000090047f01000000000000000000000000000000000000000000000000000000000000000284848060010195508151811015156102f557fe5b9060200101907effffffffffffffffffffffffffffffffffffffffffffffffffffffffffffff1916908160001a905350808060010191505061027f565b8397505050505050505092915050565b602060405190810160405280600081525090565b6020604051908101604052806000815250905600a165627a7a72305820f5e9b62e520b56645825942606f89514a4e5d5f4de7d50962862635aa1f7003e0029",
  "source": "pragma solidity 0.4.19;\r\n\r\n\r\ncontract Concatenate {\r\n    function concatWithoutImport(string _s, string _t) public returns (string) {\r\n        bytes memory a = bytes(_s);\r\n        bytes memory b = bytes(_t);\r\n        string memory stringAB = new string(a.length + b.length);\r\n        bytes memory bresult = bytes(stringAB);\r\n        uint count = 0;\r\n        for (uint i = 0; i<a.length; i++) {\r\n            bresult[count++] = a[i];\r\n        }\r\n        for (uint j = 0; j<b.length; j++) {\r\n            bresult[count++] = b[j];\r\n        }\r\n        return string(bresult);\r\n    }\r\n\r\n    /* BONUS */\r\n/*    function concatWithImport(string s, string t) public returns (string) {\r\n\r\n    } */\r\n}\r\n",
  "sourcePath": "C:\\Users\\chinz_000\\Desktop\\Blockchain\\CS 198\\sp18-lab02\\Intro to Solidity\\contracts\\concatenate.sol",
  "compiler": {
    "name": "solc",
    "version": "0.4.19+commit.c4cbbb05.Emscripten.clang"
  },
  "schemaVersion": "1.0.1",
  "updatedAt": "2018-02-22T22:20:24.612Z"
}