{
  "contractName": "Fibonacci",
  "abi": [
    {
      "constant": true,
      "inputs": [
        {
          "name": "n",
          "type": "uint256"
        }
      ],
      "name": "fibRecur",
      "outputs": [
        {
          "name": "",
          "type": "uint256"
        }
      ],
      "payable": false,
      "stateMutability": "pure",
      "type": "function"
    },
    {
      "constant": false,
      "inputs": [
        {
          "name": "n",
          "type": "uint256"
        }
      ],
      "name": "fibIter",
      "outputs": [
        {
          "name": "",
          "type": "uint256"
        }
      ],
      "payable": false,
      "stateMutability": "nonpayable",
      "type": "function"
    }
  ],
  "bytecode": "0x6060604052341561000f57600080fd5b61019b8061001e6000396000f30060606040526004361061004c576000357c0100000000000000000000000000000000000000000000000000000000900463ffffffff168063c840476e14610051578063dfe5adc114610088575b600080fd5b341561005c57600080fd5b61007260048080359060200190919050506100bf565b6040518082815260200191505060405180910390f35b341561009357600080fd5b6100a96004808035906020019091905050610105565b6040518082815260200191505060405180910390f35b6000808214156100d25760009050610100565b60018214156100e45760019050610100565b6100f0600283036100bf565b6100fc600184036100bf565b0190505b919050565b6000806000806000600193506001925060018614806101245750600286145b1561012e57600191505b600290505b600586018110156101635782840191508581141561015057610163565b8293508192508080600101915050610133565b819450505050509190505600a165627a7a72305820d7697ce8ab87ba8c0a92f919bac5c77b0d624d956722daaf2bc3272f10164be00029",
  "source": "pragma solidity 0.4.19;\r\n\r\n\r\ncontract Fibonacci {\r\n    /* Carry out calculations to find the nth Fibonacci number */\r\n    function fibRecur(uint n) public pure returns (uint) {\r\n        if (n == 0) return 0;\r\n        if (n == 1) return 1;\r\n        else return fibRecur(n-1) + fibRecur(n-2);\r\n    }\r\n\r\n    /* Carry out calculations to find the nth Fibonacci number */\r\n    function fibIter(uint n) public returns (uint) {\r\n        uint a=1;\r\n        uint b=1;\r\n        uint result;\r\n        if ((n == 1) || (n == 2)) {\r\n            result = 1;\r\n        }\r\n        uint loop = 2;\r\n        while (loop<(n+5)) {\r\n            result = a + b;\r\n                if (loop==n) {\r\n                    break;\r\n                }\r\n            a = b;\r\n            b = result;\r\n            loop++;\r\n        }\r\n        return result;\r\n    }\r\n}\r\n",
  "sourcePath": "C:\\Users\\chinz_000\\Desktop\\Blockchain\\CS 198\\sp18-lab02\\Intro to Solidity\\contracts\\fibonacci.sol",
  "compiler": {
    "name": "solc",
    "version": "0.4.19+commit.c4cbbb05.Emscripten.clang"
  },
  "schemaVersion": "1.0.1",
  "updatedAt": "2018-02-22T22:13:57.139Z"
}