{
  "contractName": "Greeter",
  "abi": [
    {
      "inputs": [
        {
          "name": "_greeter",
          "type": "string"
        }
      ],
      "payable": false,
      "stateMutability": "nonpayable",
      "type": "constructor"
    },
    {
      "constant": true,
      "inputs": [],
      "name": "greet",
      "outputs": [
        {
          "name": "",
          "type": "string"
        }
      ],
      "payable": false,
      "stateMutability": "view",
      "type": "function"
    }
  ],
  "bytecode": "0x6060604052341561000f57600080fd5b6040516102ed3803806102ed833981016040528080518201919050506040805190810160405280600a81526020017f48616c6c6f576f726c64000000000000000000000000000000000000000000008152506000908051906020019061007692919061007d565b5050610122565b828054600181600116156101000203166002900490600052602060002090601f016020900481019282601f106100be57805160ff19168380011785556100ec565b828001600101855582156100ec579182015b828111156100eb5782518255916020019190600101906100d0565b5b5090506100f991906100fd565b5090565b61011f91905b8082111561011b576000816000905550600101610103565b5090565b90565b6101bc806101316000396000f300606060405260043610610041576000357c0100000000000000000000000000000000000000000000000000000000900463ffffffff168063cfae321714610046575b600080fd5b341561005157600080fd5b6100596100d4565b6040518080602001828103825283818151815260200191508051906020019080838360005b8381101561009957808201518184015260208101905061007e565b50505050905090810190601f1680156100c65780820380516001836020036101000a031916815260200191505b509250505060405180910390f35b6100dc61017c565b60008054600181600116156101000203166002900480601f0160208091040260200160405190810160405280929190818152602001828054600181600116156101000203166002900480156101725780601f1061014757610100808354040283529160200191610172565b820191906000526020600020905b81548152906001019060200180831161015557829003601f168201915b5050505050905090565b6020604051908101604052806000815250905600a165627a7a72305820b0a1a7b8ff4fbf5c4e0dd177abc954012f7da13dcd092ec28a6154ad8013fa540029",
  "source": "pragma solidity 0.4.19;\r\n\r\n\r\ncontract Greeter {\r\n    string private greeting;\r\n\r\n    function Greeter(string _greeter) public {\r\n        greeting = \"HalloWorld\";\r\n    }\r\n\r\n    function greet() public view returns (string) {\r\n        return greeting;\r\n    }\r\n}\r\n",
  "sourcePath": "C:\\Users\\chinz_000\\Desktop\\Blockchain\\CS 198\\sp18-lab02\\Intro to Solidity\\contracts\\greeter.sol",
  "compiler": {
    "name": "solc",
    "version": "0.4.19+commit.c4cbbb05.Emscripten.clang"
  },
  "schemaVersion": "1.0.1",
  "updatedAt": "2018-02-28T01:03:53.110Z"
}