{
  "contractName": "XOR",
  "abi": [
    {
      "constant": true,
      "inputs": [
        {
          "name": "a",
          "type": "uint256"
        },
        {
          "name": "b",
          "type": "uint256"
        }
      ],
      "name": "xor",
      "outputs": [
        {
          "name": "",
          "type": "uint256"
        }
      ],
      "payable": false,
      "stateMutability": "pure",
      "type": "function"
    }
  ],
  "bytecode": "0x6060604052341561000f57600080fd5b60ea8061001d6000396000f300606060405260043610603f576000357c0100000000000000000000000000000000000000000000000000000000900463ffffffff1680639ed41ba1146044575b600080fd5b3415604e57600080fd5b606b60048080359060200190919080359060200190919050506081565b6040518082815260200191505060405180910390f35b600060018314801560925750600182145b8060a7575060008314801560a65750600082145b5b1560b3576000905060b8565b600190505b929150505600a165627a7a72305820ec067a8f34c1ea410564a2d65d21570a1b7149ef18b65d3f74b090fe270c23be0029",
  "source": "pragma solidity 0.4.19;\r\n\r\n\r\ncontract XOR {\r\n    function xor(uint a, uint b) public pure returns (uint) {\r\n      if (((a==1)&&(b==1))||((a==0)&&(b==0))) {\r\n          return 0;\r\n      }\r\n      return 1;\r\n    }\r\n}\r\n",
  "sourcePath": "C:\\Users\\chinz_000\\Desktop\\Blockchain\\CS 198\\sp18-lab02\\Intro to Solidity\\contracts\\xor.sol",
  "compiler": {
    "name": "solc",
    "version": "0.4.19+commit.c4cbbb05.Emscripten.clang"
  },
  "schemaVersion": "1.0.1",
  "updatedAt": "2018-02-22T22:13:57.140Z"
}