{
  "contractName": "Crowdsale",
  "abi": [
    {
      "constant": true,
      "inputs": [],
      "name": "owner",
      "outputs": [
        {
          "name": "",
          "type": "address"
        }
      ],
      "payable": false,
      "stateMutability": "view",
      "type": "function"
    },
    {
      "constant": true,
      "inputs": [],
      "name": "queue",
      "outputs": [
        {
          "name": "",
          "type": "address"
        }
      ],
      "payable": false,
      "stateMutability": "view",
      "type": "function"
    },
    {
      "constant": true,
      "inputs": [
        {
          "name": "",
          "type": "address"
        }
      ],
      "name": "blacklist",
      "outputs": [
        {
          "name": "",
          "type": "bool"
        }
      ],
      "payable": false,
      "stateMutability": "view",
      "type": "function"
    },
    {
      "constant": true,
      "inputs": [],
      "name": "token",
      "outputs": [
        {
          "name": "",
          "type": "address"
        }
      ],
      "payable": false,
      "stateMutability": "view",
      "type": "function"
    },
    {
      "inputs": [],
      "payable": false,
      "stateMutability": "nonpayable",
      "type": "constructor"
    },
    {
      "payable": true,
      "stateMutability": "payable",
      "type": "fallback"
    },
    {
      "anonymous": false,
      "inputs": [
        {
          "indexed": false,
          "name": "purchaserAddress",
          "type": "address"
        },
        {
          "indexed": false,
          "name": "purchasedAmount",
          "type": "uint256"
        }
      ],
      "name": "TokensPurchased",
      "type": "event"
    },
    {
      "anonymous": false,
      "inputs": [
        {
          "indexed": false,
          "name": "refundeeAddress",
          "type": "address"
        },
        {
          "indexed": false,
          "name": "refundedAmount",
          "type": "uint256"
        }
      ],
      "name": "TokensRefunded",
      "type": "event"
    },
    {
      "constant": false,
      "inputs": [
        {
          "name": "_startTime",
          "type": "uint256"
        },
        {
          "name": "_endTime",
          "type": "uint256"
        },
        {
          "name": "_initialTokenAmount",
          "type": "uint256"
        },
        {
          "name": "_tokenPerWei",
          "type": "uint256"
        },
        {
          "name": "_timeLimit",
          "type": "uint256"
        }
      ],
      "name": "setCrowdsaleDetails",
      "outputs": [
        {
          "name": "success",
          "type": "bool"
        }
      ],
      "payable": false,
      "stateMutability": "nonpayable",
      "type": "function"
    },
    {
      "constant": true,
      "inputs": [],
      "name": "checkStartTime",
      "outputs": [
        {
          "name": "",
          "type": "uint256"
        }
      ],
      "payable": false,
      "stateMutability": "view",
      "type": "function"
    },
    {
      "constant": true,
      "inputs": [],
      "name": "checkEndTime",
      "outputs": [
        {
          "name": "",
          "type": "uint256"
        }
      ],
      "payable": false,
      "stateMutability": "view",
      "type": "function"
    },
    {
      "constant": true,
      "inputs": [],
      "name": "checkRemainingTime",
      "outputs": [
        {
          "name": "",
          "type": "uint256"
        }
      ],
      "payable": false,
      "stateMutability": "view",
      "type": "function"
    },
    {
      "constant": false,
      "inputs": [
        {
          "name": "mintAmount",
          "type": "uint256"
        }
      ],
      "name": "mintToken",
      "outputs": [
        {
          "name": "success",
          "type": "bool"
        }
      ],
      "payable": false,
      "stateMutability": "nonpayable",
      "type": "function"
    },
    {
      "constant": false,
      "inputs": [
        {
          "name": "burnAmount",
          "type": "uint256"
        }
      ],
      "name": "burnToken",
      "outputs": [
        {
          "name": "success",
          "type": "bool"
        }
      ],
      "payable": false,
      "stateMutability": "nonpayable",
      "type": "function"
    },
    {
      "constant": false,
      "inputs": [],
      "name": "sendContractFunds",
      "outputs": [
        {
          "name": "fundsReturned",
          "type": "uint256"
        }
      ],
      "payable": false,
      "stateMutability": "nonpayable",
      "type": "function"
    },
    {
      "constant": false,
      "inputs": [
        {
          "name": "amount",
          "type": "uint256"
        }
      ],
      "name": "buyTokens",
      "outputs": [
        {
          "name": "success",
          "type": "bool"
        }
      ],
      "payable": false,
      "stateMutability": "nonpayable",
      "type": "function"
    },
    {
      "constant": false,
      "inputs": [
        {
          "name": "amount",
          "type": "uint256"
        }
      ],
      "name": "refundTokens",
      "outputs": [
        {
          "name": "success",
          "type": "bool"
        }
      ],
      "payable": false,
      "stateMutability": "nonpayable",
      "type": "function"
    },
    {
      "constant": false,
      "inputs": [
        {
          "name": "blacklistAddress",
          "type": "address"
        }
      ],
      "name": "addToBlacklist",
      "outputs": [
        {
          "name": "success",
          "type": "bool"
        }
      ],
      "payable": false,
      "stateMutability": "nonpayable",
      "type": "function"
    }
  ],
  "bytecode": "0x6060604052341561000f57600080fd5b33600560016101000a81548173ffffffffffffffffffffffffffffffffffffffff021916908373ffffffffffffffffffffffffffffffffffffffff160217905550600080819055506128f4806100666000396000f3006060604052600436106100d0576000357c0100000000000000000000000000000000000000000000000000000000900463ffffffff16806328b56048146100d55780633610724e146100fe57806344337ea1146101395780634ea13ae21461018a5780635dfee9bb146101b35780637b47ec1a146101ee5780638bd14d1c146102295780638da5cb5b14610252578063a443fbc4146102a7578063c634d032146102d0578063e10d29ee1461030b578063e633457214610360578063f9f92be4146103bf578063fc0c546a14610410575b600080fd5b34156100e057600080fd5b6100e8610465565b6040518082815260200191505060405180910390f35b341561010957600080fd5b61011f60048080359060200190919050506104cc565b604051808215151515815260200191505060405180910390f35b341561014457600080fd5b610170600480803573ffffffffffffffffffffffffffffffffffffffff16906020019091905050610852565b604051808215151515815260200191505060405180910390f35b341561019557600080fd5b61019d61095d565b6040518082815260200191505060405180910390f35b34156101be57600080fd5b6101d46004808035906020019091905050610a67565b604051808215151515815260200191505060405180910390f35b34156101f957600080fd5b61020f6004808035906020019091905050610bf1565b604051808215151515815260200191505060405180910390f35b341561023457600080fd5b61023c610d0b565b6040518082815260200191505060405180910390f35b341561025d57600080fd5b610265610d72565b604051808273ffffffffffffffffffffffffffffffffffffffff1673ffffffffffffffffffffffffffffffffffffffff16815260200191505060405180910390f35b34156102b257600080fd5b6102ba610d98565b6040518082815260200191505060405180910390f35b34156102db57600080fd5b6102f16004808035906020019091905050610e01565b604051808215151515815260200191505060405180910390f35b341561031657600080fd5b61031e610f1b565b604051808273ffffffffffffffffffffffffffffffffffffffff1673ffffffffffffffffffffffffffffffffffffffff16815260200191505060405180910390f35b341561036b57600080fd5b6103a56004808035906020019091908035906020019091908035906020019091908035906020019091908035906020019091905050610f41565b604051808215151515815260200191505060405180910390f35b34156103ca57600080fd5b6103f6600480803573ffffffffffffffffffffffffffffffffffffffff1690602001909190505061123b565b604051808215151515815260200191505060405180910390f35b341561041b57600080fd5b61042361125b565b604051808273ffffffffffffffffffffffffffffffffffffffff1673ffffffffffffffffffffffffffffffffffffffff16815260200191505060405180910390f35b6000600560019054906101000a900473ffffffffffffffffffffffffffffffffffffffff1673ffffffffffffffffffffffffffffffffffffffff163373ffffffffffffffffffffffffffffffffffffffff161415156104c3576104c9565b60025490505b90565b60006001544210806104df575060025442115b156104e95761084d565b60011515600660003373ffffffffffffffffffffffffffffffffffffffff1673ffffffffffffffffffffffffffffffffffffffff16815260200190815260200160002060009054906101000a900460ff16151514156105475761084c565b600860009054906101000a900473ffffffffffffffffffffffffffffffffffffffff1673ffffffffffffffffffffffffffffffffffffffff16631e2231436000604051602001526040518163ffffffff167c0100000000000000000000000000000000000000000000000000000000028152600401602060405180830381600087803b15156105d557600080fd5b6102c65a03f115156105e657600080fd5b5050506040518051905073ffffffffffffffffffffffffffffffffffffffff163373ffffffffffffffffffffffffffffffffffffffff161480156106d557506001600860009054906101000a900473ffffffffffffffffffffffffffffffffffffffff1673ffffffffffffffffffffffffffffffffffffffff16633e3c9eae6000604051602001526040518163ffffffff167c0100000000000000000000000000000000000000000000000000000000028152600401602060405180830381600087803b15156106b557600080fd5b6102c65a03f115156106c657600080fd5b5050506040518051905060ff16115b1561084657816000808282540192505081905550600760009054906101000a900473ffffffffffffffffffffffffffffffffffffffff1673ffffffffffffffffffffffffffffffffffffffff1663b08079a633846000604051602001526040518363ffffffff167c0100000000000000000000000000000000000000000000000000000000028152600401808373ffffffffffffffffffffffffffffffffffffffff1673ffffffffffffffffffffffffffffffffffffffff16815260200182815260200192505050602060405180830381600087803b15156107b657600080fd5b6102c65a03f115156107c757600080fd5b50505060405180519050507f8f28852646c20cc973d3a8218f7eefed58c25c909f78f0265af4818c3d4dc2713383604051808373ffffffffffffffffffffffffffffffffffffffff1673ffffffffffffffffffffffffffffffffffffffff1681526020018281526020019250505060405180910390a16001905061084b565b600090505b5b5b919050565b6000600560019054906101000a900473ffffffffffffffffffffffffffffffffffffffff1673ffffffffffffffffffffffffffffffffffffffff163373ffffffffffffffffffffffffffffffffffffffff161415156108b057610958565b6001600660008473ffffffffffffffffffffffffffffffffffffffff1673ffffffffffffffffffffffffffffffffffffffff16815260200190815260200160002060006101000a81548160ff021916908315150217905550600660008373ffffffffffffffffffffffffffffffffffffffff1673ffffffffffffffffffffffffffffffffffffffff16815260200190815260200160002060009054906101000a900460ff1690505b919050565b600080600560019054906101000a900473ffffffffffffffffffffffffffffffffffffffff1673ffffffffffffffffffffffffffffffffffffffff163373ffffffffffffffffffffffffffffffffffffffff161415156109bc57610a63565b600254421115156109cc57600080fd5b3073ffffffffffffffffffffffffffffffffffffffff16319050600560019054906101000a900473ffffffffffffffffffffffffffffffffffffffff1673ffffffffffffffffffffffffffffffffffffffff166108fc3073ffffffffffffffffffffffffffffffffffffffff16319081150290604051600060405180830381858888f193505050501515610a5f57600080fd5b8091505b5090565b6000600154421080610a7a575060025442115b15610a8457610bec565b816000808282540392505081905550600760009054906101000a900473ffffffffffffffffffffffffffffffffffffffff1673ffffffffffffffffffffffffffffffffffffffff16632087bedd33846000604051602001526040518363ffffffff167c0100000000000000000000000000000000000000000000000000000000028152600401808373ffffffffffffffffffffffffffffffffffffffff1673ffffffffffffffffffffffffffffffffffffffff16815260200182815260200192505050602060405180830381600087803b1515610b6057600080fd5b6102c65a03f11515610b7157600080fd5b50505060405180519050507f4a38df4d86b2d93d9427931480e831f8dbede6c4d0fdc4490340fddc0c33627a3383604051808373ffffffffffffffffffffffffffffffffffffffff1673ffffffffffffffffffffffffffffffffffffffff1681526020018281526020019250505060405180910390a1600190505b919050565b6000600560019054906101000a900473ffffffffffffffffffffffffffffffffffffffff1673ffffffffffffffffffffffffffffffffffffffff163373ffffffffffffffffffffffffffffffffffffffff16141515610c4f57610d06565b600760009054906101000a900473ffffffffffffffffffffffffffffffffffffffff1673ffffffffffffffffffffffffffffffffffffffff16631e05dde7836000604051602001526040518263ffffffff167c010000000000000000000000000000000000000000000000000000000002815260040180828152602001915050602060405180830381600087803b1515610ce857600080fd5b6102c65a03f11515610cf957600080fd5b5050506040518051905090505b919050565b6000600560019054906101000a900473ffffffffffffffffffffffffffffffffffffffff1673ffffffffffffffffffffffffffffffffffffffff163373ffffffffffffffffffffffffffffffffffffffff16141515610d6957610d6f565b60015490505b90565b600560019054906101000a900473ffffffffffffffffffffffffffffffffffffffff1681565b6000600560019054906101000a900473ffffffffffffffffffffffffffffffffffffffff1673ffffffffffffffffffffffffffffffffffffffff163373ffffffffffffffffffffffffffffffffffffffff16141515610df657610dfe565b600154420390505b90565b6000600560019054906101000a900473ffffffffffffffffffffffffffffffffffffffff1673ffffffffffffffffffffffffffffffffffffffff163373ffffffffffffffffffffffffffffffffffffffff16141515610e5f57610f16565b600760009054906101000a900473ffffffffffffffffffffffffffffffffffffffff1673ffffffffffffffffffffffffffffffffffffffff1663179d375c836000604051602001526040518263ffffffff167c010000000000000000000000000000000000000000000000000000000002815260040180828152602001915050602060405180830381600087803b1515610ef857600080fd5b6102c65a03f11515610f0957600080fd5b5050506040518051905090505b919050565b600860009054906101000a900473ffffffffffffffffffffffffffffffffffffffff1681565b6000806000600560019054906101000a900473ffffffffffffffffffffffffffffffffffffffff1673ffffffffffffffffffffffffffffffffffffffff163373ffffffffffffffffffffffffffffffffffffffff16141515610fa257611230565b60011515600560009054906101000a900460ff1615151415610fc35761122f565b6001600560006101000a81548160ff02191690831515021790555087600181905550866002819055508560038190555084600481905550611002611281565b604051809103906000f080151561101857600080fd5b600760006101000a81548173ffffffffffffffffffffffffffffffffffffffff021916908373ffffffffffffffffffffffffffffffffffffffff160217905550600760009054906101000a900473ffffffffffffffffffffffffffffffffffffffff1673ffffffffffffffffffffffffffffffffffffffff16639bbf5703876000604051602001526040518263ffffffff167c010000000000000000000000000000000000000000000000000000000002815260040180828152602001915050602060405180830381600087803b15156110f157600080fd5b6102c65a03f1151561110257600080fd5b505050604051805190509150611116611291565b604051809103906000f080151561112c57600080fd5b600860006101000a81548173ffffffffffffffffffffffffffffffffffffffff021916908373ffffffffffffffffffffffffffffffffffffffff160217905550600860009054906101000a900473ffffffffffffffffffffffffffffffffffffffff1673ffffffffffffffffffffffffffffffffffffffff1663e2889c82856000604051602001526040518263ffffffff167c010000000000000000000000000000000000000000000000000000000002815260040180828152602001915050602060405180830381600087803b151561120557600080fd5b6102c65a03f1151561121657600080fd5b50505060405180519050905081801561122c5750805b92505b5b505095945050505050565b60066020528060005260406000206000915054906101000a900460ff1681565b600760009054906101000a900473ffffffffffffffffffffffffffffffffffffffff1681565b604051610e7e806112a283390190565b6040516107a9806121208339019056006060604052341561000f57600080fd5b6000600560006101000a81548160ff021916908315150217905550610e45806100396000396000f3006060604052600436106100d0576000357c0100000000000000000000000000000000000000000000000000000000900463ffffffff168063095ea7b3146100d5578063179d375c1461012f57806318160ddd1461016a5780631e05dde7146101935780632087bedd146101ce57806323b872dd14610228578063246029f4146102a157806370a08231146102ce5780637b47ec1a1461031b5780639bbf570314610356578063a9059cbb14610391578063b08079a6146103eb578063da0239a614610445578063dd62ed3e1461046e575b600080fd5b34156100e057600080fd5b610115600480803573ffffffffffffffffffffffffffffffffffffffff169060200190919080359060200190919050506104da565b604051808215151515815260200191505060405180910390f35b341561013a57600080fd5b610150600480803590602001909190505061064a565b604051808215151515815260200191505060405180910390f35b341561017557600080fd5b61017d610665565b6040518082815260200191505060405180910390f35b341561019e57600080fd5b6101b4600480803590602001909190505061066f565b604051808215151515815260200191505060405180910390f35b34156101d957600080fd5b61020e600480803573ffffffffffffffffffffffffffffffffffffffff1690602001909190803590602001909190505061068a565b604051808215151515815260200191505060405180910390f35b341561023357600080fd5b610287600480803573ffffffffffffffffffffffffffffffffffffffff1690602001909190803573ffffffffffffffffffffffffffffffffffffffff169060200190919080359060200190919050506106e3565b604051808215151515815260200191505060405180910390f35b34156102ac57600080fd5b6102b46109aa565b604051808215151515815260200191505060405180910390f35b34156102d957600080fd5b610305600480803573ffffffffffffffffffffffffffffffffffffffff169060200190919050506109bd565b6040518082815260200191505060405180910390f35b341561032657600080fd5b61033c6004808035906020019091905050610a06565b604051808215151515815260200191505060405180910390f35b341561036157600080fd5b6103776004808035906020019091905050610b2a565b604051808215151515815260200191505060405180910390f35b341561039c57600080fd5b6103d1600480803573ffffffffffffffffffffffffffffffffffffffff16906020019091908035906020019091905050610b6c565b604051808215151515815260200191505060405180910390f35b34156103f657600080fd5b61042b600480803573ffffffffffffffffffffffffffffffffffffffff16906020019091908035906020019091905050610d33565b604051808215151515815260200191505060405180910390f35b341561045057600080fd5b610458610d8c565b6040518082815260200191505060405180910390f35b341561047957600080fd5b6104c4600480803573ffffffffffffffffffffffffffffffffffffffff1690602001909190803573ffffffffffffffffffffffffffffffffffffffff16906020019091905050610d92565b6040518082815260200191505060405180910390f35b600081600460003373ffffffffffffffffffffffffffffffffffffffff1673ffffffffffffffffffffffffffffffffffffffff16815260200190815260200160002060008573ffffffffffffffffffffffffffffffffffffffff1673ffffffffffffffffffffffffffffffffffffffff1681526020019081526020016000205401600460003373ffffffffffffffffffffffffffffffffffffffff1673ffffffffffffffffffffffffffffffffffffffff16815260200190815260200160002060008573ffffffffffffffffffffffffffffffffffffffff1673ffffffffffffffffffffffffffffffffffffffff168152602001908152602001600020819055508273ffffffffffffffffffffffffffffffffffffffff163373ffffffffffffffffffffffffffffffffffffffff167f8c5be1e5ebec7d5bd14f71427d1e84f3dd0314c0f7b2291e5b200ac8c7c3b925846040518082815260200191505060405180910390a36001905092915050565b60008160026000828254019250508190555060019050919050565b6000600254905090565b60008160026000828254039250508190555060019050919050565b600081600360008573ffffffffffffffffffffffffffffffffffffffff1673ffffffffffffffffffffffffffffffffffffffff168152602001908152602001600020600082825403925050819055506001905092915050565b6000600360008573ffffffffffffffffffffffffffffffffffffffff1673ffffffffffffffffffffffffffffffffffffffff1681526020019081526020016000205482111561073157600080fd5b81600360008673ffffffffffffffffffffffffffffffffffffffff1673ffffffffffffffffffffffffffffffffffffffff1681526020019081526020016000205403600360008673ffffffffffffffffffffffffffffffffffffffff1673ffffffffffffffffffffffffffffffffffffffff1681526020019081526020016000208190555081600460008673ffffffffffffffffffffffffffffffffffffffff1673ffffffffffffffffffffffffffffffffffffffff16815260200190815260200160002060003373ffffffffffffffffffffffffffffffffffffffff1673ffffffffffffffffffffffffffffffffffffffff1681526020019081526020016000205403600460008673ffffffffffffffffffffffffffffffffffffffff1673ffffffffffffffffffffffffffffffffffffffff16815260200190815260200160002060003373ffffffffffffffffffffffffffffffffffffffff1673ffffffffffffffffffffffffffffffffffffffff1681526020019081526020016000208190555081600360008573ffffffffffffffffffffffffffffffffffffffff1673ffffffffffffffffffffffffffffffffffffffff1681526020019081526020016000205401600360008573ffffffffffffffffffffffffffffffffffffffff1673ffffffffffffffffffffffffffffffffffffffff168152602001908152602001600020819055508273ffffffffffffffffffffffffffffffffffffffff168473ffffffffffffffffffffffffffffffffffffffff167fddf252ad1be2c89b69c2b068fc378daa952ba7f163c4a11628f55a4df523b3ef846040518082815260200191505060405180910390a3600190509392505050565b600560009054906101000a900460ff1681565b6000600360008373ffffffffffffffffffffffffffffffffffffffff1673ffffffffffffffffffffffffffffffffffffffff168152602001908152602001600020549050919050565b6000600360003373ffffffffffffffffffffffffffffffffffffffff1673ffffffffffffffffffffffffffffffffffffffff16815260200190815260200160002054821115610a585760009050610b25565b8160026000828254039250508190555081600360003373ffffffffffffffffffffffffffffffffffffffff1673ffffffffffffffffffffffffffffffffffffffff168152602001908152602001600020600082825403925050819055507ffd38818f5291bf0bb3a2a48aadc06ba8757865d1dabd804585338aab3009dcb63383604051808373ffffffffffffffffffffffffffffffffffffffff1673ffffffffffffffffffffffffffffffffffffffff1681526020018281526020019250505060405180910390a1600190505b919050565b600060011515600560009054906101000a900460ff1615151415610b4d57610b67565b81600281905550600560009054906101000a900460ff1690505b919050565b6000600360003373ffffffffffffffffffffffffffffffffffffffff1673ffffffffffffffffffffffffffffffffffffffff16815260200190815260200160002054821115610bba57600080fd5b81600360003373ffffffffffffffffffffffffffffffffffffffff1673ffffffffffffffffffffffffffffffffffffffff1681526020019081526020016000205403600360003373ffffffffffffffffffffffffffffffffffffffff1673ffffffffffffffffffffffffffffffffffffffff1681526020019081526020016000208190555081600360008573ffffffffffffffffffffffffffffffffffffffff1673ffffffffffffffffffffffffffffffffffffffff1681526020019081526020016000205401600360008573ffffffffffffffffffffffffffffffffffffffff1673ffffffffffffffffffffffffffffffffffffffff168152602001908152602001600020819055508273ffffffffffffffffffffffffffffffffffffffff163373ffffffffffffffffffffffffffffffffffffffff167fddf252ad1be2c89b69c2b068fc378daa952ba7f163c4a11628f55a4df523b3ef846040518082815260200191505060405180910390a36001905092915050565b600081600360008573ffffffffffffffffffffffffffffffffffffffff1673ffffffffffffffffffffffffffffffffffffffff168152602001908152602001600020600082825401925050819055506001905092915050565b60015481565b6000600460008473ffffffffffffffffffffffffffffffffffffffff1673ffffffffffffffffffffffffffffffffffffffff16815260200190815260200160002060008373ffffffffffffffffffffffffffffffffffffffff1673ffffffffffffffffffffffffffffffffffffffff168152602001908152602001600020549050929150505600a165627a7a72305820dea86b5d4ead787993d23e67df73c8edb542516484d691f9bc73b2225f0dba120029606060405260056000806101000a81548160ff021916908360ff160217905550341561002a57600080fd5b6000600560006101000a81548160ff02191690831515021790555060008060016101000a81548160ff021916908360ff16021790555061073a8061006f6000396000f300606060405260043610610099576000357c0100000000000000000000000000000000000000000000000000000000900463ffffffff1680631e2231431461009e578063246029f4146100f35780633e3c9eae146101205780638f807f6b1461014f578063ad7d59fc14610188578063c08d1fe5146101b7578063e0c6190d146101e0578063e2889c82146101f5578063f2a75fe414610230575b600080fd5b34156100a957600080fd5b6100b161025d565b604051808273ffffffffffffffffffffffffffffffffffffffff1673ffffffffffffffffffffffffffffffffffffffff16815260200191505060405180910390f35b34156100fe57600080fd5b610106610299565b604051808215151515815260200191505060405180910390f35b341561012b57600080fd5b6101336102ac565b604051808260ff1660ff16815260200191505060405180910390f35b341561015a57600080fd5b610186600480803573ffffffffffffffffffffffffffffffffffffffff169060200190919050506102c2565b005b341561019357600080fd5b61019b6103da565b604051808260ff1660ff16815260200191505060405180910390f35b34156101c257600080fd5b6101ca610421565b6040518082815260200191505060405180910390f35b34156101eb57600080fd5b6101f3610427565b005b341561020057600080fd5b61021660048080359060200190919050506104b5565b604051808215151515815260200191505060405180910390f35b341561023b57600080fd5b610243610512565b604051808215151515815260200191505060405180910390f35b6000600260006001815260200190815260200160002060009054906101000a900473ffffffffffffffffffffffffffffffffffffffff16905090565b600560009054906101000a900460ff1681565b60008060019054906101000a900460ff16905090565b6000809054906101000a900460ff1660ff16600060019054906101000a900460ff1660ff1610156103d5576001600060018282829054906101000a900460ff160192506101000a81548160ff021916908360ff16021790555033600260008060019054906101000a900460ff1660ff16815260200190815260200160002060006101000a81548173ffffffffffffffffffffffffffffffffffffffff021916908373ffffffffffffffffffffffffffffffffffffffff160217905550600060019054906101000a900460ff1660ff16600160003373ffffffffffffffffffffffffffffffffffffffff1673ffffffffffffffffffffffffffffffffffffffff168152602001908152602001600020819055505b600080fd5b6000600160003373ffffffffffffffffffffffffffffffffffffffff1673ffffffffffffffffffffffffffffffffffffffff16815260200190815260200160002054905090565b60045481565b600080600354420391506004548211156104b15761044361025d565b905061044d61053f565b7f9cc7989a522ca54a919571ecb975a8c53e369ec6731976eb550fba0464bf3bb481604051808273ffffffffffffffffffffffffffffffffffffffff1673ffffffffffffffffffffffffffffffffffffffff16815260200191505060405180910390a15b5050565b600060011515600560009054906101000a900460ff16151514156104d85761050d565b6001600560006101000a81548160ff02191690831515021790555081600481905550600560009054906101000a900460ff1690505b919050565b600080600060019054906101000a900460ff1660ff161415610537576001905061053c565b600090505b90565b60008060016000600260006001815260200190815260200160002060009054906101000a900473ffffffffffffffffffffffffffffffffffffffff1673ffffffffffffffffffffffffffffffffffffffff1673ffffffffffffffffffffffffffffffffffffffff16815260200190815260200160002081905550600190505b60058110156106d6576002600060018301815260200190815260200160002060009054906101000a900473ffffffffffffffffffffffffffffffffffffffff166002600083815260200190815260200160002060006101000a81548173ffffffffffffffffffffffffffffffffffffffff021916908373ffffffffffffffffffffffffffffffffffffffff16021790555080600160006002600060018601815260200190815260200160002060009054906101000a900473ffffffffffffffffffffffffffffffffffffffff1673ffffffffffffffffffffffffffffffffffffffff1673ffffffffffffffffffffffffffffffffffffffff1681526020019081526020016000208190555080806001019150506105be565b6001600060018282829054906101000a900460ff160392506101000a81548160ff021916908360ff16021790555042600381905550505600a165627a7a72305820153ad8dc714442dce7947c49083213608bba4daa5584cb5e6bf316b5ec2113830029a165627a7a72305820249b3c991bb49a73fd48a2b69831085b2015db390ba55c2d8ea60fd798fcb5400029",
  "source": "pragma solidity ^0.4.15;\r\n\r\nimport './Queue.sol';\r\nimport './Token.sol';\r\n\r\n/**\r\n * @title Crowdsale\r\n * @dev Contract that deploys `Token.sol`\r\n * Is timelocked, manages buyer queue, updates balances on `Token.sol`\r\n */\r\n\r\ncontract Crowdsale {\r\n\t// YOUR CODE HERE\r\n\r\n\t// The contract must keep track of how many tokens have been sold\r\n\tuint tokensSold;\r\n\tuint startTime;\r\n\tuint endTime;\r\n\tuint initialTokenAmount;\r\n\tuint tokenPerWei;\r\n\r\n\tbool hasOwnerSetup;\r\n\r\n\t// The contract must forward all funds to the owner after sale is over\r\n\taddress public owner;\r\n\tmapping (address => bool) public blacklist;\r\n\tToken public token;\r\n\tQueue public queue;\r\n\t\r\n\tmodifier ownerOnly() {\r\n\t\t//'IF' used instead of 'REQUIRE' because of truffle\r\n\t\tif (msg.sender != owner) {\r\n\t\t\treturn;\r\n\t\t}\r\n\t\t_;\r\n\t}\r\n\t// The contract must only sell to/refund buyers between start-time and end-time\r\n\tmodifier buyTime() {\r\n\t\t//'IF' used instead of 'REQUIRE' because of truffle\r\n\t\tif (now < startTime || now > endTime) {\r\n\t\t\treturn;\r\n\t\t}\r\n\t\t_;\r\n\t}\r\n\r\n\tmodifier ownerHasNotSetup() {\r\n\t\tif (hasOwnerSetup == true) {\r\n\t\t\treturn;\r\n\t\t}\r\n\t\t_;\r\n\t}\r\n\r\n\t//Enforce a black/white-list of addresses that are/aren't able to participate in the crowdsale\r\n\tmodifier notBlackList() {\r\n\t\tif (blacklist[msg.sender] == true) {\r\n\t\t\treturn;\r\n\t\t}\r\n\t\t_;\r\n\t}\r\n\r\n\t// Events:\r\n\t// Fired on token purchase\r\n\t// Fired on token refund\r\n\tevent TokensPurchased(address purchaserAddress, uint purchasedAmount);\r\n\tevent TokensRefunded(address refundeeAddress, uint refundedAmount);\r\n\r\n\t// Owner:\r\n\t// Must be set on deployment\r\n\t// Must be able to time-cap the sale\r\n\t// Must be able to specify an initial amount of tokens to create\r\n\t// Must be able to specify the amount of tokens 1 wei is worth\r\n\t\r\n\tfunction Crowdsale() public {\r\n\t\towner = msg.sender;\r\n\t\t// startTime = _startTime;\r\n\t\t// endTime = _endTime;\r\n\t\t// initialTokenAmount = _initialTokenAmount;\r\n\t\t// tokenPerWei = _tokenPerWei;\r\n\t\ttokensSold = 0;\r\n\t\t// uint _startTime, uint _endTime, uint _initialTokenAmount, uint _tokenPerWei, uint _timeLimit\r\n\r\n\t\t// \tMust deploy Token.sol \r\n\t\t//  check out ../migrations/2_deploy_contracts.js (commented part)\r\n\t\t// tokenAddress = _tokenAddress;\r\n\t\t\r\n\t}\r\n\r\n\tfunction setCrowdsaleDetails(uint _startTime, uint _endTime, uint _initialTokenAmount, uint _tokenPerWei, uint _timeLimit) public ownerOnly() ownerHasNotSetup() returns (bool success)  {\r\n\t\thasOwnerSetup = true;\r\n\t\tstartTime = _startTime;\r\n\t\tendTime = _endTime;\r\n\t\tinitialTokenAmount = _initialTokenAmount;\r\n\t\ttokenPerWei = _tokenPerWei;\r\n\t\ttoken = new Token();\r\n\t\tbool tokenSetupSuccess = token.setTokenSupply(_initialTokenAmount);\r\n\t\tqueue = new Queue();\r\n\t\tbool queueSetupSuccess = queue.setTimeLimit(_timeLimit);\r\n\t\treturn (tokenSetupSuccess && queueSetupSuccess);\r\n\t\t\r\n\t}\r\n\r\n\t// Must keep track of start-time\r\n\tfunction checkStartTime() view public ownerOnly() returns(uint) {\r\n\t\treturn startTime;\r\n\t}\r\n\r\n\t// Must keep track of end-time/time remaining since start-time\r\n\tfunction checkEndTime() view public ownerOnly() returns(uint) {\r\n\t\treturn endTime;\r\n\t}\r\n\r\n\tfunction checkRemainingTime() constant public ownerOnly() returns(uint) {\r\n\t\treturn (now-startTime); \r\n\t}\r\n\t\r\n\t// Must be able to mint new tokens\r\n\t// This amount would be added to totalSupply in Token.sol\r\n\tfunction mintToken(uint mintAmount) public ownerOnly() returns(bool success) {\r\n\t\treturn token.addToken(mintAmount);\r\n\t}\r\n\t\r\n\t// Must be able to burn tokens not sold yet\r\n\t// This amount would be subtracted from totalSupply in Token.sol\r\n\tfunction burnToken(uint burnAmount) public ownerOnly() returns(bool success) {\r\n\t\treturn token.subtractToken(burnAmount);\r\n\t}\r\n\r\n\t// Must be able to receive funds from contract after the sale is over\r\n\tfunction sendContractFunds() public ownerOnly() returns (uint fundsReturned) {\r\n\t\trequire (now > endTime);\r\n\t\tuint balanceReturned = this.balance;\r\n\t\towner.transfer(this.balance);\r\n\t\treturn balanceReturned;\r\n\t}\r\n\r\n\t// Buyers:\r\n\t// Must be able to buy tokens directly from the contract and as long as the sale has not ended, if they are first in the queue and there is someone waiting line behind them\r\n\t// This would change their balance in Token.sol\r\n\t// This would change the number of tokens sold\r\n\tfunction buyTokens(uint amount) public buyTime() notBlackList() returns (bool success) {\r\n\t\t//need to figure out queue interaction here\r\n\t\tif (msg.sender == queue.getFirst() && queue.qsize() > 1) {\r\n\t\t\ttokensSold += amount;\r\n\t\t\ttoken.addToBalance(msg.sender, amount);\r\n\t\t\tTokensPurchased(msg.sender, amount);\r\n\t\t\treturn true;\r\n\t\t}\r\n\t\treturn false;\r\n\t}\t\r\n\t\r\n\t// Must be able to refund their tokens as long as the sale has not ended. Their place in the queue does not matter\r\n\t// This would change their balance in Token.sol\r\n\t// This would change the number of tokens sold\r\n\t\r\n\tfunction refundTokens(uint amount) public buyTime() returns (bool success) {\r\n\t\ttokensSold -= amount;\r\n\t\ttoken.removeFromBalance(msg.sender, amount);\r\n\t\tTokensRefunded(msg.sender, amount);\r\n\t\treturn true;\r\n\t}\r\n\r\n\t// Add to blacklist\r\n\tfunction addToBlacklist(address blacklistAddress) public ownerOnly() returns (bool success) {\r\n\t\tblacklist[blacklistAddress] = true;\r\n\t\treturn blacklist[blacklistAddress];\r\n\t}\r\n\r\n\tfunction() public payable {\r\n\t\trevert();\r\n\t}\r\n}\r\n",
  "sourcePath": "C:\\Users\\chinz_000\\Desktop\\Blockchain\\CS 198\\sp18-midterm-p1\\contracts\\Crowdsale.sol",
  "compiler": {
    "name": "solc",
    "version": "0.4.19+commit.c4cbbb05.Emscripten.clang"
  },
  "schemaVersion": "1.0.1",
  "updatedAt": "2018-03-07T01:40:10.763Z"
}