{
  "contractName": "Crowdsale",
  "abi": [
    {
      "constant": true,
      "inputs": [],
      "name": "owner",
      "outputs": [
        {
          "name": "",
          "type": "address"
        }
      ],
      "payable": false,
      "stateMutability": "view",
      "type": "function"
    },
    {
      "constant": true,
      "inputs": [],
      "name": "queue",
      "outputs": [
        {
          "name": "",
          "type": "address"
        }
      ],
      "payable": false,
      "stateMutability": "view",
      "type": "function"
    },
    {
      "constant": true,
      "inputs": [],
      "name": "token",
      "outputs": [
        {
          "name": "",
          "type": "address"
        }
      ],
      "payable": false,
      "stateMutability": "view",
      "type": "function"
    },
    {
      "inputs": [],
      "payable": false,
      "stateMutability": "nonpayable",
      "type": "constructor"
    },
    {
      "payable": true,
      "stateMutability": "payable",
      "type": "fallback"
    },
    {
      "anonymous": false,
      "inputs": [
        {
          "indexed": false,
          "name": "purchaserAddress",
          "type": "address"
        },
        {
          "indexed": false,
          "name": "purchasedAmount",
          "type": "uint256"
        }
      ],
      "name": "TokensPurchased",
      "type": "event"
    },
    {
      "anonymous": false,
      "inputs": [
        {
          "indexed": false,
          "name": "refundeeAddress",
          "type": "address"
        },
        {
          "indexed": false,
          "name": "refundedAmount",
          "type": "uint256"
        }
      ],
      "name": "TokensRefunded",
      "type": "event"
    },
    {
      "constant": false,
      "inputs": [
        {
          "name": "_startTime",
          "type": "uint256"
        },
        {
          "name": "_endTime",
          "type": "uint256"
        },
        {
          "name": "_initialTokenAmount",
          "type": "uint256"
        },
        {
          "name": "_tokenPerWei",
          "type": "uint256"
        },
        {
          "name": "_timeLimit",
          "type": "uint256"
        }
      ],
      "name": "setCrowdsaleDetails",
      "outputs": [
        {
          "name": "success",
          "type": "bool"
        }
      ],
      "payable": false,
      "stateMutability": "nonpayable",
      "type": "function"
    },
    {
      "constant": true,
      "inputs": [],
      "name": "checkStartTime",
      "outputs": [
        {
          "name": "",
          "type": "uint256"
        }
      ],
      "payable": false,
      "stateMutability": "view",
      "type": "function"
    },
    {
      "constant": true,
      "inputs": [],
      "name": "checkEndTime",
      "outputs": [
        {
          "name": "",
          "type": "uint256"
        }
      ],
      "payable": false,
      "stateMutability": "view",
      "type": "function"
    },
    {
      "constant": true,
      "inputs": [],
      "name": "checkRemainingTime",
      "outputs": [
        {
          "name": "",
          "type": "uint256"
        }
      ],
      "payable": false,
      "stateMutability": "view",
      "type": "function"
    },
    {
      "constant": true,
      "inputs": [
        {
          "name": "mintAmount",
          "type": "uint256"
        }
      ],
      "name": "mintToken",
      "outputs": [
        {
          "name": "success",
          "type": "bool"
        }
      ],
      "payable": false,
      "stateMutability": "view",
      "type": "function"
    },
    {
      "constant": true,
      "inputs": [
        {
          "name": "burnAmount",
          "type": "uint256"
        }
      ],
      "name": "burnToken",
      "outputs": [
        {
          "name": "success",
          "type": "bool"
        }
      ],
      "payable": false,
      "stateMutability": "view",
      "type": "function"
    },
    {
      "constant": true,
      "inputs": [],
      "name": "sendContractFunds",
      "outputs": [
        {
          "name": "fundsReturned",
          "type": "uint256"
        }
      ],
      "payable": false,
      "stateMutability": "view",
      "type": "function"
    },
    {
      "constant": true,
      "inputs": [
        {
          "name": "amount",
          "type": "uint256"
        }
      ],
      "name": "buyTokens",
      "outputs": [
        {
          "name": "success",
          "type": "bool"
        }
      ],
      "payable": false,
      "stateMutability": "view",
      "type": "function"
    },
    {
      "constant": true,
      "inputs": [
        {
          "name": "amount",
          "type": "uint256"
        }
      ],
      "name": "refundTokens",
      "outputs": [
        {
          "name": "success",
          "type": "bool"
        }
      ],
      "payable": false,
      "stateMutability": "view",
      "type": "function"
    }
  ],
  "bytecode": "0x6060604052341561000f57600080fd5b33600560016101000a81548173ffffffffffffffffffffffffffffffffffffffff021916908373ffffffffffffffffffffffffffffffffffffffff16021790555060008081905550610ec8806100666000396000f3006060604052600436106100ba576000357c0100000000000000000000000000000000000000000000000000000000900463ffffffff16806328b56048146100bf5780633610724e146100e85780634ea13ae2146101235780635dfee9bb1461014c5780637b47ec1a146101875780638bd14d1c146101c25780638da5cb5b146101eb578063a443fbc414610240578063c634d03214610269578063e10d29ee146102a4578063e6334572146102f9578063fc0c546a14610358575b600080fd5b34156100ca57600080fd5b6100d26103ad565b6040518082815260200191505060405180910390f35b34156100f357600080fd5b6101096004808035906020019091905050610414565b604051808215151515815260200191505060405180910390f35b341561012e57600080fd5b61013661073b565b6040518082815260200191505060405180910390f35b341561015757600080fd5b61016d6004808035906020019091905050610845565b604051808215151515815260200191505060405180910390f35b341561019257600080fd5b6101a860048080359060200190919050506109cf565b604051808215151515815260200191505060405180910390f35b34156101cd57600080fd5b6101d5610ae9565b6040518082815260200191505060405180910390f35b34156101f657600080fd5b6101fe610b50565b604051808273ffffffffffffffffffffffffffffffffffffffff1673ffffffffffffffffffffffffffffffffffffffff16815260200191505060405180910390f35b341561024b57600080fd5b610253610b76565b6040518082815260200191505060405180910390f35b341561027457600080fd5b61028a6004808035906020019091905050610bdf565b604051808215151515815260200191505060405180910390f35b34156102af57600080fd5b6102b7610cf9565b604051808273ffffffffffffffffffffffffffffffffffffffff1673ffffffffffffffffffffffffffffffffffffffff16815260200191505060405180910390f35b341561030457600080fd5b61033e6004808035906020019091908035906020019091908035906020019091908035906020019091908035906020019091905050610d1f565b604051808215151515815260200191505060405180910390f35b341561036357600080fd5b61036b610e76565b604051808273ffffffffffffffffffffffffffffffffffffffff1673ffffffffffffffffffffffffffffffffffffffff16815260200191505060405180910390f35b6000600560019054906101000a900473ffffffffffffffffffffffffffffffffffffffff1673ffffffffffffffffffffffffffffffffffffffff163373ffffffffffffffffffffffffffffffffffffffff1614151561040b57610411565b60025490505b90565b6000600154421080610427575060025442115b1561043157610736565b600760009054906101000a900473ffffffffffffffffffffffffffffffffffffffff1673ffffffffffffffffffffffffffffffffffffffff16631e2231436000604051602001526040518163ffffffff167c0100000000000000000000000000000000000000000000000000000000028152600401602060405180830381600087803b15156104bf57600080fd5b6102c65a03f115156104d057600080fd5b5050506040518051905073ffffffffffffffffffffffffffffffffffffffff163373ffffffffffffffffffffffffffffffffffffffff161480156105bf57506001600760009054906101000a900473ffffffffffffffffffffffffffffffffffffffff1673ffffffffffffffffffffffffffffffffffffffff16633e3c9eae6000604051602001526040518163ffffffff167c0100000000000000000000000000000000000000000000000000000000028152600401602060405180830381600087803b151561059f57600080fd5b6102c65a03f115156105b057600080fd5b5050506040518051905060ff16115b1561073057816000808282540192505081905550600660009054906101000a900473ffffffffffffffffffffffffffffffffffffffff1673ffffffffffffffffffffffffffffffffffffffff1663b08079a633846000604051602001526040518363ffffffff167c0100000000000000000000000000000000000000000000000000000000028152600401808373ffffffffffffffffffffffffffffffffffffffff1673ffffffffffffffffffffffffffffffffffffffff16815260200182815260200192505050602060405180830381600087803b15156106a057600080fd5b6102c65a03f115156106b157600080fd5b50505060405180519050507f8f28852646c20cc973d3a8218f7eefed58c25c909f78f0265af4818c3d4dc2713383604051808373ffffffffffffffffffffffffffffffffffffffff1673ffffffffffffffffffffffffffffffffffffffff1681526020018281526020019250505060405180910390a160019050610735565b600090505b5b919050565b600080600560019054906101000a900473ffffffffffffffffffffffffffffffffffffffff1673ffffffffffffffffffffffffffffffffffffffff163373ffffffffffffffffffffffffffffffffffffffff1614151561079a57610841565b600254421115156107aa57600080fd5b3073ffffffffffffffffffffffffffffffffffffffff16319050600560019054906101000a900473ffffffffffffffffffffffffffffffffffffffff1673ffffffffffffffffffffffffffffffffffffffff166108fc3073ffffffffffffffffffffffffffffffffffffffff16319081150290604051600060405180830381858888f19350505050151561083d57600080fd5b8091505b5090565b6000600154421080610858575060025442115b15610862576109ca565b816000808282540392505081905550600660009054906101000a900473ffffffffffffffffffffffffffffffffffffffff1673ffffffffffffffffffffffffffffffffffffffff16632087bedd33846000604051602001526040518363ffffffff167c0100000000000000000000000000000000000000000000000000000000028152600401808373ffffffffffffffffffffffffffffffffffffffff1673ffffffffffffffffffffffffffffffffffffffff16815260200182815260200192505050602060405180830381600087803b151561093e57600080fd5b6102c65a03f1151561094f57600080fd5b50505060405180519050507f4a38df4d86b2d93d9427931480e831f8dbede6c4d0fdc4490340fddc0c33627a3383604051808373ffffffffffffffffffffffffffffffffffffffff1673ffffffffffffffffffffffffffffffffffffffff1681526020018281526020019250505060405180910390a1600190505b919050565b6000600560019054906101000a900473ffffffffffffffffffffffffffffffffffffffff1673ffffffffffffffffffffffffffffffffffffffff163373ffffffffffffffffffffffffffffffffffffffff16141515610a2d57610ae4565b600660009054906101000a900473ffffffffffffffffffffffffffffffffffffffff1673ffffffffffffffffffffffffffffffffffffffff16631e05dde7836000604051602001526040518263ffffffff167c010000000000000000000000000000000000000000000000000000000002815260040180828152602001915050602060405180830381600087803b1515610ac657600080fd5b6102c65a03f11515610ad757600080fd5b5050506040518051905090505b919050565b6000600560019054906101000a900473ffffffffffffffffffffffffffffffffffffffff1673ffffffffffffffffffffffffffffffffffffffff163373ffffffffffffffffffffffffffffffffffffffff16141515610b4757610b4d565b60015490505b90565b600560019054906101000a900473ffffffffffffffffffffffffffffffffffffffff1681565b6000600560019054906101000a900473ffffffffffffffffffffffffffffffffffffffff1673ffffffffffffffffffffffffffffffffffffffff163373ffffffffffffffffffffffffffffffffffffffff16141515610bd457610bdc565b600154420390505b90565b6000600560019054906101000a900473ffffffffffffffffffffffffffffffffffffffff1673ffffffffffffffffffffffffffffffffffffffff163373ffffffffffffffffffffffffffffffffffffffff16141515610c3d57610cf4565b600660009054906101000a900473ffffffffffffffffffffffffffffffffffffffff1673ffffffffffffffffffffffffffffffffffffffff1663179d375c836000604051602001526040518263ffffffff167c010000000000000000000000000000000000000000000000000000000002815260040180828152602001915050602060405180830381600087803b1515610cd657600080fd5b6102c65a03f11515610ce757600080fd5b5050506040518051905090505b919050565b600760009054906101000a900473ffffffffffffffffffffffffffffffffffffffff1681565b6000600560019054906101000a900473ffffffffffffffffffffffffffffffffffffffff1673ffffffffffffffffffffffffffffffffffffffff163373ffffffffffffffffffffffffffffffffffffffff16141515610d7d57610e6d565b60011515600560009054906101000a900460ff1615151415610d9e57610e6c565b6001600560006101000a81548160ff02191690831515021790555085600181905550846002819055508360038190555082600481905550600354600660006101000a81548173ffffffffffffffffffffffffffffffffffffffff021916908373ffffffffffffffffffffffffffffffffffffffff16021790555081600760006101000a81548173ffffffffffffffffffffffffffffffffffffffff021916908373ffffffffffffffffffffffffffffffffffffffff160217905550600560009054906101000a900460ff1690505b5b95945050505050565b600660009054906101000a900473ffffffffffffffffffffffffffffffffffffffff16815600a165627a7a72305820786210c6c0047b995ddfd789dc06f3940645410f3f47b627a2b24714811a5b780029",
  "source": "pragma solidity ^0.4.15;\r\n\r\nimport './Queue.sol';\r\nimport './Token.sol';\r\n\r\n/**\r\n * @title Crowdsale\r\n * @dev Contract that deploys `Token.sol`\r\n * Is timelocked, manages buyer queue, updates balances on `Token.sol`\r\n */\r\n\r\ncontract Crowdsale {\r\n\t// YOUR CODE HERE\r\n\r\n\t// The contract must keep track of how many tokens have been sold\r\n\tuint tokensSold;\r\n\tuint startTime;\r\n\tuint endTime;\r\n\tuint initialTokenAmount;\r\n\tuint tokenPerWei;\r\n\r\n\tbool hasOwnerSetup;\r\n\r\n\t// The contract must forward all funds to the owner after sale is over\r\n\taddress public owner;\r\n\tToken public token;\r\n\tQueue public queue;\r\n\t\r\n\tmodifier ownerOnly() {\r\n\t\t//'IF' used instead of 'REQUIRE' because of truffle\r\n\t\tif (msg.sender != owner) {\r\n\t\t\treturn;\r\n\t\t}\r\n\t\t_;\r\n\t}\r\n\t// The contract must only sell to/refund buyers between start-time and end-time\r\n\tmodifier buyTime() {\r\n\t\t//'IF' used instead of 'REQUIRE' because of truffle\r\n\t\tif (now < startTime || now > endTime) {\r\n\t\t\treturn;\r\n\t\t}\r\n\t\t_;\r\n\t}\r\n\r\n\tmodifier ownerHasNotSetup() {\r\n\t\tif (hasOwnerSetup == true) {\r\n\t\t\treturn;\r\n\t\t}\r\n\t\t_;\r\n\t}\r\n\r\n\t// Events:\r\n\t// Fired on token purchase\r\n\t// Fired on token refund\r\n\tevent TokensPurchased(address purchaserAddress, uint purchasedAmount);\r\n\tevent TokensRefunded(address refundeeAddress, uint refundedAmount);\r\n\r\n\t// Owner:\r\n\t// Must be set on deployment\r\n\t// Must be able to time-cap the sale\r\n\t// Must be able to specify an initial amount of tokens to create\r\n\t// Must be able to specify the amount of tokens 1 wei is worth\r\n\t\r\n\tfunction Crowdsale() public {\r\n\t\towner = msg.sender;\r\n\t\t// startTime = _startTime;\r\n\t\t// endTime = _endTime;\r\n\t\t// initialTokenAmount = _initialTokenAmount;\r\n\t\t// tokenPerWei = _tokenPerWei;\r\n\t\ttokensSold = 0;\r\n\t\t// uint _startTime, uint _endTime, uint _initialTokenAmount, uint _tokenPerWei, uint _timeLimit\r\n\r\n\t\t// \tMust deploy Token.sol \r\n\t\t//  check out ../migrations/2_deploy_contracts.js (commented part)\r\n\t\t// tokenAddress = _tokenAddress;\r\n\t\t\r\n\t}\r\n\r\n\tfunction setCrowdsaleDetails(uint _startTime, uint _endTime, uint _initialTokenAmount, uint _tokenPerWei, uint _timeLimit) public ownerOnly() ownerHasNotSetup() returns (bool success)  {\r\n\t\thasOwnerSetup = true;\r\n\t\tstartTime = _startTime;\r\n\t\tendTime = _endTime;\r\n\t\tinitialTokenAmount = _initialTokenAmount;\r\n\t\ttokenPerWei = _tokenPerWei;\r\n\t\ttoken = Token(initialTokenAmount);\r\n\t\tqueue = Queue(_timeLimit);\r\n\t\treturn hasOwnerSetup;\r\n\t\t\r\n\t}\r\n\r\n\t// Must keep track of start-time\r\n\tfunction checkStartTime() view public ownerOnly() returns(uint) {\r\n\t\treturn startTime;\r\n\t}\r\n\r\n\t// Must keep track of end-time/time remaining since start-time\r\n\tfunction checkEndTime() view public ownerOnly() returns(uint) {\r\n\t\treturn endTime;\r\n\t}\r\n\r\n\tfunction checkRemainingTime() constant public ownerOnly() returns(uint) {\r\n\t\treturn (now-startTime); \r\n\t}\r\n\t\r\n\t// Must be able to mint new tokens\r\n\t// This amount would be added to totalSupply in Token.sol\r\n\tfunction mintToken(uint mintAmount) constant public ownerOnly() returns(bool success) {\r\n\t\treturn token.addToken(mintAmount);\r\n\t}\r\n\t\r\n\t// Must be able to burn tokens not sold yet\r\n\t// This amount would be subtracted from totalSupply in Token.sol\r\n\tfunction burnToken(uint burnAmount) constant public ownerOnly() returns(bool success) {\r\n\t\treturn token.subtractToken(burnAmount);\r\n\t}\r\n\r\n\t// Must be able to receive funds from contract after the sale is over\r\n\tfunction sendContractFunds() constant public ownerOnly() returns (uint fundsReturned) {\r\n\t\trequire (now > endTime);\r\n\t\tuint balanceReturned = this.balance;\r\n\t\towner.transfer(this.balance);\r\n\t\treturn balanceReturned;\r\n\t}\r\n\r\n\t// Buyers:\r\n\t// Must be able to buy tokens directly from the contract and as long as the sale has not ended, if they are first in the queue and there is someone waiting line behind them\r\n\t// This would change their balance in Token.sol\r\n\t// This would change the number of tokens sold\r\n\tfunction buyTokens(uint amount) constant public buyTime() returns (bool success) {\r\n\t\t//need to figure out queue interaction here\r\n\t\tif (msg.sender == queue.getFirst() && queue.qsize() > 1) {\r\n\t\t\ttokensSold += amount;\r\n\t\t\ttoken.addToBalance(msg.sender, amount);\r\n\t\t\tTokensPurchased(msg.sender, amount);\r\n\t\t\treturn true;\r\n\t\t}\r\n\t\treturn false;\r\n\t}\t\r\n\t\r\n\t// Must be able to refund their tokens as long as the sale has not ended. Their place in the queue does not matter\r\n\tfunction refundTokens(uint amount) constant public buyTime() returns (bool success) {\r\n\t\ttokensSold -= amount;\r\n\t\ttoken.removeFromBalance(msg.sender, amount);\r\n\t\tTokensRefunded(msg.sender, amount);\r\n\t\treturn true;\r\n\t}\r\n\r\n\t// This would change their balance in Token.sol\r\n\t// This would change the number of tokens sold\r\n\t\r\n\tfunction() public payable {\r\n\t\trevert();\r\n\t}\r\n}\r\n",
  "sourcePath": "C:\\Users\\chinz_000\\Desktop\\Blockchain\\CS 198\\sp18-midterm-p1\\contracts\\Crowdsale.sol",
  "compiler": {
    "name": "solc",
    "version": "0.4.19+commit.c4cbbb05.Emscripten.clang"
  },
  "schemaVersion": "1.0.1",
  "updatedAt": "2018-03-06T21:26:56.888Z"
}