{
  "contractName": "Queue",
  "abi": [
    {
      "constant": true,
      "inputs": [],
      "name": "timeLimit",
      "outputs": [
        {
          "name": "",
          "type": "uint256"
        }
      ],
      "payable": false,
      "stateMutability": "view",
      "type": "function"
    },
    {
      "inputs": [
        {
          "name": "_timeLimit",
          "type": "uint256"
        }
      ],
      "payable": false,
      "stateMutability": "nonpayable",
      "type": "constructor"
    },
    {
      "anonymous": false,
      "inputs": [
        {
          "indexed": false,
          "name": "removedAddress",
          "type": "address"
        }
      ],
      "name": "QueueTimeLimitReached",
      "type": "event"
    },
    {
      "constant": true,
      "inputs": [],
      "name": "qsize",
      "outputs": [
        {
          "name": "",
          "type": "uint8"
        }
      ],
      "payable": false,
      "stateMutability": "view",
      "type": "function"
    },
    {
      "constant": true,
      "inputs": [],
      "name": "empty",
      "outputs": [
        {
          "name": "",
          "type": "bool"
        }
      ],
      "payable": false,
      "stateMutability": "view",
      "type": "function"
    },
    {
      "constant": true,
      "inputs": [],
      "name": "getFirst",
      "outputs": [
        {
          "name": "",
          "type": "address"
        }
      ],
      "payable": false,
      "stateMutability": "view",
      "type": "function"
    },
    {
      "constant": true,
      "inputs": [],
      "name": "checkPlace",
      "outputs": [
        {
          "name": "",
          "type": "uint8"
        }
      ],
      "payable": false,
      "stateMutability": "view",
      "type": "function"
    },
    {
      "constant": false,
      "inputs": [],
      "name": "checkTime",
      "outputs": [],
      "payable": false,
      "stateMutability": "nonpayable",
      "type": "function"
    },
    {
      "constant": false,
      "inputs": [
        {
          "name": "addr",
          "type": "address"
        }
      ],
      "name": "enqueue",
      "outputs": [],
      "payable": false,
      "stateMutability": "nonpayable",
      "type": "function"
    }
  ],
  "bytecode": "0x606060405260056000806101000a81548160ff021916908360ff160217905550341561002a57600080fd5b6040516020806106c4833981016040528080519060200190919050508060048190555060008060016101000a81548160ff021916908360ff1602179055505061064c806100786000396000f300606060405260043610610083576000357c0100000000000000000000000000000000000000000000000000000000900463ffffffff1680631e223143146100885780633e3c9eae146100dd5780638f807f6b1461010c578063ad7d59fc14610145578063c08d1fe514610174578063e0c6190d1461019d578063f2a75fe4146101b2575b600080fd5b341561009357600080fd5b61009b6101df565b604051808273ffffffffffffffffffffffffffffffffffffffff1673ffffffffffffffffffffffffffffffffffffffff16815260200191505060405180910390f35b34156100e857600080fd5b6100f061021b565b604051808260ff1660ff16815260200191505060405180910390f35b341561011757600080fd5b610143600480803573ffffffffffffffffffffffffffffffffffffffff16906020019091905050610231565b005b341561015057600080fd5b610158610349565b604051808260ff1660ff16815260200191505060405180910390f35b341561017f57600080fd5b610187610390565b6040518082815260200191505060405180910390f35b34156101a857600080fd5b6101b0610396565b005b34156101bd57600080fd5b6101c5610424565b604051808215151515815260200191505060405180910390f35b6000600260006001815260200190815260200160002060009054906101000a900473ffffffffffffffffffffffffffffffffffffffff16905090565b60008060019054906101000a900460ff16905090565b6000809054906101000a900460ff1660ff16600060019054906101000a900460ff1660ff161015610344576001600060018282829054906101000a900460ff160192506101000a81548160ff021916908360ff16021790555033600260008060019054906101000a900460ff1660ff16815260200190815260200160002060006101000a81548173ffffffffffffffffffffffffffffffffffffffff021916908373ffffffffffffffffffffffffffffffffffffffff160217905550600060019054906101000a900460ff1660ff16600160003373ffffffffffffffffffffffffffffffffffffffff1673ffffffffffffffffffffffffffffffffffffffff168152602001908152602001600020819055505b600080fd5b6000600160003373ffffffffffffffffffffffffffffffffffffffff1673ffffffffffffffffffffffffffffffffffffffff16815260200190815260200160002054905090565b60045481565b60008060035442039150600454821115610420576103b26101df565b90506103bc610451565b7f9cc7989a522ca54a919571ecb975a8c53e369ec6731976eb550fba0464bf3bb481604051808273ffffffffffffffffffffffffffffffffffffffff1673ffffffffffffffffffffffffffffffffffffffff16815260200191505060405180910390a15b5050565b600080600060019054906101000a900460ff1660ff161415610449576001905061044e565b600090505b90565b60008060016000600260006001815260200190815260200160002060009054906101000a900473ffffffffffffffffffffffffffffffffffffffff1673ffffffffffffffffffffffffffffffffffffffff1673ffffffffffffffffffffffffffffffffffffffff16815260200190815260200160002081905550600190505b60058110156105e8576002600060018301815260200190815260200160002060009054906101000a900473ffffffffffffffffffffffffffffffffffffffff166002600083815260200190815260200160002060006101000a81548173ffffffffffffffffffffffffffffffffffffffff021916908373ffffffffffffffffffffffffffffffffffffffff16021790555080600160006002600060018601815260200190815260200160002060009054906101000a900473ffffffffffffffffffffffffffffffffffffffff1673ffffffffffffffffffffffffffffffffffffffff1673ffffffffffffffffffffffffffffffffffffffff1681526020019081526020016000208190555080806001019150506104d0565b6001600060018282829054906101000a900460ff160392506101000a81548160ff021916908360ff16021790555042600381905550505600a165627a7a7230582049478a7d436797a7ebb5fd1f2b641dfef1a7b0a4fee45d0c59a9dec5c5cf25a70029",
  "source": "pragma solidity ^0.4.15;\n\n/**\n * @title Queue\n * @dev Data structure contract used in `Crowdsale.sol`\n * Allows buyers to line up on a first-in-first-out basis\n * See this example: http://interactivepython.org/courselib/static/pythonds/BasicDS/ImplementingaQueueinPython.html\n */\n\ncontract Queue {\n\t/* State variables */\n\t// Must have a finite size, please keep this set to 5\n\tuint8 size = 5;\n\tuint8 currentSize;\n\t//Not sure if this is correct but I cannot find any members which can access Array type data efficeintly\n\tmapping(address => uint) queuersAddressToIndex;\n\tmapping(uint => address) queuersIndexToAddress;\n\tuint timeInQueue;\n\t// Must have a time limit someone can keep their spot in the front; this prevents griefing\n\tuint public timeLimit;\n\n\t/* Add events */\n\t// \tEvents:\n\tevent QueueTimeLimitReached(address removedAddress);\n\n\t/* Add constructor */\n\tfunction Queue(uint _timeLimit) {\n\t\ttimeLimit = _timeLimit;\n\t\tcurrentSize = 0;\n\t}\n\n\t/* Returns the number of people waiting in line */\n\tfunction qsize() external view returns(uint8) {\n\t\treturn currentSize;\n\t}\n\n\t/* Returns whether the queue is empty or not */\n\tfunction empty() external view returns(bool) {\n\t\tif (currentSize == 0) {\n\t\t\treturn true;\n\t\t}\n\t\treturn false;\n\t}\n\n\t/* Returns the address of the person in the front of the queue */\n\tfunction getFirst() constant returns(address) {\n\t\treturn queuersIndexToAddress[1];\n\t}\n\n\t/* Allows `msg.sender` to check their position in the queue */\n\tfunction checkPlace() constant returns(uint8) {\n\t\treturn uint8(queuersAddressToIndex[msg.sender]);\n\t}\n\n\t/* Allows anyone to expel the first person in line if their time\n\t * limit is up\n\t */\n\tfunction checkTime() external{\n\t\t//Time in queue unsure whether it depends on time in the 1st position or in queue\n\t\tuint currentTimeInQueue = now - timeInQueue;\n\n\t\tif (currentTimeInQueue > timeLimit) {\n\t\t\taddress first = getFirst();\n\t\t\tdequeue();\n\t\t\tQueueTimeLimitReached(first);\n\t\t}\n\t}\n\n\t/* Removes the first person in line; either when their time is up or when\n\t * they are done with their purchase\n\t */\n\tfunction dequeue() private {\n\t\tqueuersAddressToIndex[queuersIndexToAddress[1]] = 0;\n\t\tfor (uint index = 1; index < 5; index++) {\n\t\t\t//QItA \t[1 | 0xabc] --> to be deleted\n\t\t\t//\t\t[2 | 0xbcd] --> to be moved up\n\t\t\t//QAtI  [0xabc | 1] --> to be deleted\n\t\t\t//\t\t[0xbcd | 2] --> to be moved up\n\t\t\tqueuersIndexToAddress[index] = queuersIndexToAddress[index+1];\n\t\t\tqueuersAddressToIndex[queuersIndexToAddress[index+1]] = index;\n\t\t}\n\t\tcurrentSize -= 1;\n\t\ttimeInQueue = now;\n\t}\n\n\t/* Places `addr` in the first empty position in the queue */\n\tfunction enqueue(address addr) external{\n\t\tif (currentSize < size) {\n\t\t\tcurrentSize += 1;\n\t\t\tqueuersIndexToAddress[currentSize] = msg.sender;\n\t\t\tqueuersAddressToIndex[msg.sender] = currentSize;\n\t\t\t//unsure about function, check out comment in CheckTime()\n\t\t\t/* timeInQueue[msg.sender] = now; */\n\t\t}\n\t\t//Not allowed to overwrite if queue is full\n\t\trevert();\n\t}\n}\n",
  "sourcePath": "/Users/jasminesingh/blockchain-for-developers/midterm-p1-1/contracts/Queue.sol",
  "compiler": {
    "name": "solc",
    "version": "0.4.19+commit.c4cbbb05.Emscripten.clang"
  },
  "schemaVersion": "2.0.0",
  "updatedAt": "2018-03-06T20:51:15.209Z"
}