{
  "contractName": "Queue",
  "abi": [
    {
      "constant": true,
      "inputs": [],
      "name": "timeLimit",
      "outputs": [
        {
          "name": "",
          "type": "uint256"
        }
      ],
      "payable": false,
      "stateMutability": "view",
      "type": "function"
    },
    {
      "inputs": [
        {
          "name": "_timeLimit",
          "type": "uint256"
        }
      ],
      "payable": false,
      "stateMutability": "nonpayable",
      "type": "constructor"
    },
    {
      "anonymous": false,
      "inputs": [
        {
          "indexed": false,
          "name": "removedAddress",
          "type": "address"
        }
      ],
      "name": "QueueTimeLimitReached",
      "type": "event"
    },
    {
      "constant": true,
      "inputs": [],
      "name": "qsize",
      "outputs": [
        {
          "name": "",
          "type": "uint8"
        }
      ],
      "payable": false,
      "stateMutability": "view",
      "type": "function"
    },
    {
      "constant": true,
      "inputs": [],
      "name": "empty",
      "outputs": [
        {
          "name": "",
          "type": "bool"
        }
      ],
      "payable": false,
      "stateMutability": "view",
      "type": "function"
    },
    {
      "constant": true,
      "inputs": [],
      "name": "getFirst",
      "outputs": [
        {
          "name": "",
          "type": "address"
        }
      ],
      "payable": false,
      "stateMutability": "view",
      "type": "function"
    },
    {
      "constant": true,
      "inputs": [],
      "name": "checkPlace",
      "outputs": [
        {
          "name": "",
          "type": "uint8"
        }
      ],
      "payable": false,
      "stateMutability": "view",
      "type": "function"
    },
    {
      "constant": false,
      "inputs": [],
      "name": "checkTime",
      "outputs": [],
      "payable": false,
      "stateMutability": "nonpayable",
      "type": "function"
    },
    {
      "constant": false,
      "inputs": [
        {
          "name": "addr",
          "type": "address"
        }
      ],
      "name": "enqueue",
      "outputs": [],
      "payable": false,
      "stateMutability": "nonpayable",
      "type": "function"
    }
  ],
  "bytecode": "0x606060405260056000806101000a81548160ff021916908360ff160217905550341561002a57600080fd5b6040516020806106c4833981016040528080519060200190919050508060048190555060008060016101000a81548160ff021916908360ff1602179055505061064c806100786000396000f300606060405260043610610083576000357c0100000000000000000000000000000000000000000000000000000000900463ffffffff1680631e223143146100885780633e3c9eae146100dd5780638f807f6b1461010c578063ad7d59fc14610145578063c08d1fe514610174578063e0c6190d1461019d578063f2a75fe4146101b2575b600080fd5b341561009357600080fd5b61009b6101df565b604051808273ffffffffffffffffffffffffffffffffffffffff1673ffffffffffffffffffffffffffffffffffffffff16815260200191505060405180910390f35b34156100e857600080fd5b6100f061021b565b604051808260ff1660ff16815260200191505060405180910390f35b341561011757600080fd5b610143600480803573ffffffffffffffffffffffffffffffffffffffff16906020019091905050610231565b005b341561015057600080fd5b610158610349565b604051808260ff1660ff16815260200191505060405180910390f35b341561017f57600080fd5b610187610390565b6040518082815260200191505060405180910390f35b34156101a857600080fd5b6101b0610396565b005b34156101bd57600080fd5b6101c5610424565b604051808215151515815260200191505060405180910390f35b6000600260006001815260200190815260200160002060009054906101000a900473ffffffffffffffffffffffffffffffffffffffff16905090565b60008060019054906101000a900460ff16905090565b6000809054906101000a900460ff1660ff16600060019054906101000a900460ff1660ff161015610344576001600060018282829054906101000a900460ff160192506101000a81548160ff021916908360ff16021790555033600260008060019054906101000a900460ff1660ff16815260200190815260200160002060006101000a81548173ffffffffffffffffffffffffffffffffffffffff021916908373ffffffffffffffffffffffffffffffffffffffff160217905550600060019054906101000a900460ff1660ff16600160003373ffffffffffffffffffffffffffffffffffffffff1673ffffffffffffffffffffffffffffffffffffffff168152602001908152602001600020819055505b600080fd5b6000600160003373ffffffffffffffffffffffffffffffffffffffff1673ffffffffffffffffffffffffffffffffffffffff16815260200190815260200160002054905090565b60045481565b60008060035442039150600454821115610420576103b26101df565b90506103bc610451565b7f9cc7989a522ca54a919571ecb975a8c53e369ec6731976eb550fba0464bf3bb481604051808273ffffffffffffffffffffffffffffffffffffffff1673ffffffffffffffffffffffffffffffffffffffff16815260200191505060405180910390a15b5050565b600080600060019054906101000a900460ff1660ff161415610449576001905061044e565b600090505b90565b60008060016000600260006001815260200190815260200160002060009054906101000a900473ffffffffffffffffffffffffffffffffffffffff1673ffffffffffffffffffffffffffffffffffffffff1673ffffffffffffffffffffffffffffffffffffffff16815260200190815260200160002081905550600190505b60058110156105e8576002600060018301815260200190815260200160002060009054906101000a900473ffffffffffffffffffffffffffffffffffffffff166002600083815260200190815260200160002060006101000a81548173ffffffffffffffffffffffffffffffffffffffff021916908373ffffffffffffffffffffffffffffffffffffffff16021790555080600160006002600060018601815260200190815260200160002060009054906101000a900473ffffffffffffffffffffffffffffffffffffffff1673ffffffffffffffffffffffffffffffffffffffff1673ffffffffffffffffffffffffffffffffffffffff1681526020019081526020016000208190555080806001019150506104d0565b6001600060018282829054906101000a900460ff160392506101000a81548160ff021916908360ff16021790555042600381905550505600a165627a7a7230582051b4fb7a01cf08ec8a4e50e6569efd154e8927c68cd6518ed68d8bca3ac8a3af0029",
  "source": "pragma solidity ^0.4.15;\r\n\r\n/**\r\n * @title Queue\r\n * @dev Data structure contract used in `Crowdsale.sol`\r\n * Allows buyers to line up on a first-in-first-out basis\r\n * See this example: http://interactivepython.org/courselib/static/pythonds/BasicDS/ImplementingaQueueinPython.html\r\n */\r\n\r\ncontract Queue {\r\n\t/* State variables */\r\n\t// Must have a finite size, please keep this set to 5\r\n\tuint8 size = 5;\r\n\tuint8 currentSize;\r\n\t//Not sure if this is correct but I cannot find any members which can access Array type data efficeintly\r\n\tmapping(address => uint) queuersAddressToIndex;\r\n\tmapping(uint => address) queuersIndexToAddress;\r\n\tuint timeInQueue;\r\n\t// Must have a time limit someone can keep their spot in the front; this prevents griefing\r\n\tuint public timeLimit;\r\n\r\n\t/* Add events */\r\n\t// \tEvents:\r\n\tevent QueueTimeLimitReached(address removedAddress);\r\n\r\n\t/* Add constructor */\r\n\tfunction Queue(uint _timeLimit) {\r\n\t\ttimeLimit = _timeLimit;\r\n\t\tcurrentSize = 0;\r\n\t}\r\n\r\n\t/* Returns the number of people waiting in line */\r\n\tfunction qsize() external view returns(uint8) {\r\n\t\treturn currentSize;\r\n\t}\r\n\r\n\t/* Returns whether the queue is empty or not */\r\n\tfunction empty() external view returns(bool) {\r\n\t\tif (currentSize == 0) {\r\n\t\t\treturn true;\r\n\t\t}\r\n\t\treturn false;\r\n\t}\r\n\r\n\t/* Returns the address of the person in the front of the queue */\r\n\tfunction getFirst() constant returns(address) {\r\n\t\treturn queuersIndexToAddress[1];\r\n\t}\r\n\r\n\t/* Allows `msg.sender` to check their position in the queue */\r\n\tfunction checkPlace() constant returns(uint8) {\r\n\t\treturn uint8(queuersAddressToIndex[msg.sender]);\r\n\t}\r\n\r\n\t/* Allows anyone to expel the first person in line if their time\r\n\t * limit is up\r\n\t */\r\n\tfunction checkTime() external{\r\n\t\t//Time in queue unsure whether it depends on time in the 1st position or in queue\r\n\t\tuint currentTimeInQueue = now - timeInQueue;\r\n\r\n\t\tif (currentTimeInQueue > timeLimit) {\r\n\t\t\taddress first = getFirst();\r\n\t\t\tdequeue();\r\n\t\t\tQueueTimeLimitReached(first);\r\n\t\t}\r\n\t}\r\n\r\n\t/* Removes the first person in line; either when their time is up or when\r\n\t * they are done with their purchase\r\n\t */\r\n\tfunction dequeue() private {\r\n\t\tqueuersAddressToIndex[queuersIndexToAddress[1]] = 0;\r\n\t\tfor (uint index = 1; index < 5; index++) {\r\n\t\t\t//QItA \t[1 | 0xabc] --> to be deleted\r\n\t\t\t//\t\t[2 | 0xbcd] --> to be moved up\r\n\t\t\t//QAtI  [0xabc | 1] --> to be deleted\r\n\t\t\t//\t\t[0xbcd | 2] --> to be moved up\r\n\t\t\tqueuersIndexToAddress[index] = queuersIndexToAddress[index+1];\r\n\t\t\tqueuersAddressToIndex[queuersIndexToAddress[index+1]] = index;\r\n\t\t}\r\n\t\tcurrentSize -= 1;\r\n\t\ttimeInQueue = now;\r\n\t}\r\n\r\n\t/* Places `addr` in the first empty position in the queue */\r\n\tfunction enqueue(address addr) external{\r\n\t\tif (currentSize < size) {\r\n\t\t\tcurrentSize += 1;\r\n\t\t\tqueuersIndexToAddress[currentSize] = msg.sender;\r\n\t\t\tqueuersAddressToIndex[msg.sender] = currentSize;\r\n\t\t\t//unsure about function, check out comment in CheckTime()\r\n\t\t\t/* timeInQueue[msg.sender] = now; */\r\n\t\t}\r\n\t\t//Not allowed to overwrite if queue is full\r\n\t\trevert();\r\n\t}\r\n}\r\n",
  "sourcePath": "C:\\Users\\chinz_000\\Desktop\\Blockchain\\CS 198\\sp18-midterm-p1\\contracts\\Queue.sol",
  "compiler": {
    "name": "solc",
    "version": "0.4.19+commit.c4cbbb05.Emscripten.clang"
  },
  "schemaVersion": "1.0.1",
  "updatedAt": "2018-03-06T21:26:56.908Z"
}