{
  "contractName": "Queue",
  "abi": [
    {
      "constant": true,
      "inputs": [],
      "name": "hasOwnerSetup",
      "outputs": [
        {
          "name": "",
          "type": "bool"
        }
      ],
      "payable": false,
      "stateMutability": "view",
      "type": "function"
    },
    {
      "constant": true,
      "inputs": [],
      "name": "timeLimit",
      "outputs": [
        {
          "name": "",
          "type": "uint256"
        }
      ],
      "payable": false,
      "stateMutability": "view",
      "type": "function"
    },
    {
      "inputs": [],
      "payable": false,
      "stateMutability": "nonpayable",
      "type": "constructor"
    },
    {
      "anonymous": false,
      "inputs": [
        {
          "indexed": false,
          "name": "removedAddress",
          "type": "address"
        }
      ],
      "name": "QueueTimeLimitReached",
      "type": "event"
    },
    {
      "constant": false,
      "inputs": [
        {
          "name": "_timeLimit",
          "type": "uint256"
        }
      ],
      "name": "setTimeLimit",
      "outputs": [
        {
          "name": "success",
          "type": "bool"
        }
      ],
      "payable": false,
      "stateMutability": "nonpayable",
      "type": "function"
    },
    {
      "constant": true,
      "inputs": [],
      "name": "qsize",
      "outputs": [
        {
          "name": "",
          "type": "uint8"
        }
      ],
      "payable": false,
      "stateMutability": "view",
      "type": "function"
    },
    {
      "constant": true,
      "inputs": [],
      "name": "empty",
      "outputs": [
        {
          "name": "",
          "type": "bool"
        }
      ],
      "payable": false,
      "stateMutability": "view",
      "type": "function"
    },
    {
      "constant": true,
      "inputs": [],
      "name": "getFirst",
      "outputs": [
        {
          "name": "",
          "type": "address"
        }
      ],
      "payable": false,
      "stateMutability": "view",
      "type": "function"
    },
    {
      "constant": true,
      "inputs": [],
      "name": "checkPlace",
      "outputs": [
        {
          "name": "",
          "type": "uint8"
        }
      ],
      "payable": false,
      "stateMutability": "view",
      "type": "function"
    },
    {
      "constant": false,
      "inputs": [],
      "name": "checkTime",
      "outputs": [],
      "payable": false,
      "stateMutability": "nonpayable",
      "type": "function"
    },
    {
      "constant": false,
      "inputs": [
        {
          "name": "addr",
          "type": "address"
        }
      ],
      "name": "enqueue",
      "outputs": [],
      "payable": false,
      "stateMutability": "nonpayable",
      "type": "function"
    }
  ],
  "bytecode": "0x606060405260056000806101000a81548160ff021916908360ff160217905550341561002a57600080fd5b6000600560006101000a81548160ff02191690831515021790555060008060016101000a81548160ff021916908360ff16021790555061073a8061006f6000396000f300606060405260043610610099576000357c0100000000000000000000000000000000000000000000000000000000900463ffffffff1680631e2231431461009e578063246029f4146100f35780633e3c9eae146101205780638f807f6b1461014f578063ad7d59fc14610188578063c08d1fe5146101b7578063e0c6190d146101e0578063e2889c82146101f5578063f2a75fe414610230575b600080fd5b34156100a957600080fd5b6100b161025d565b604051808273ffffffffffffffffffffffffffffffffffffffff1673ffffffffffffffffffffffffffffffffffffffff16815260200191505060405180910390f35b34156100fe57600080fd5b610106610299565b604051808215151515815260200191505060405180910390f35b341561012b57600080fd5b6101336102ac565b604051808260ff1660ff16815260200191505060405180910390f35b341561015a57600080fd5b610186600480803573ffffffffffffffffffffffffffffffffffffffff169060200190919050506102c2565b005b341561019357600080fd5b61019b6103da565b604051808260ff1660ff16815260200191505060405180910390f35b34156101c257600080fd5b6101ca610421565b6040518082815260200191505060405180910390f35b34156101eb57600080fd5b6101f3610427565b005b341561020057600080fd5b61021660048080359060200190919050506104b5565b604051808215151515815260200191505060405180910390f35b341561023b57600080fd5b610243610512565b604051808215151515815260200191505060405180910390f35b6000600260006001815260200190815260200160002060009054906101000a900473ffffffffffffffffffffffffffffffffffffffff16905090565b600560009054906101000a900460ff1681565b60008060019054906101000a900460ff16905090565b6000809054906101000a900460ff1660ff16600060019054906101000a900460ff1660ff1610156103d5576001600060018282829054906101000a900460ff160192506101000a81548160ff021916908360ff16021790555033600260008060019054906101000a900460ff1660ff16815260200190815260200160002060006101000a81548173ffffffffffffffffffffffffffffffffffffffff021916908373ffffffffffffffffffffffffffffffffffffffff160217905550600060019054906101000a900460ff1660ff16600160003373ffffffffffffffffffffffffffffffffffffffff1673ffffffffffffffffffffffffffffffffffffffff168152602001908152602001600020819055505b600080fd5b6000600160003373ffffffffffffffffffffffffffffffffffffffff1673ffffffffffffffffffffffffffffffffffffffff16815260200190815260200160002054905090565b60045481565b600080600354420391506004548211156104b15761044361025d565b905061044d61053f565b7f9cc7989a522ca54a919571ecb975a8c53e369ec6731976eb550fba0464bf3bb481604051808273ffffffffffffffffffffffffffffffffffffffff1673ffffffffffffffffffffffffffffffffffffffff16815260200191505060405180910390a15b5050565b600060011515600560009054906101000a900460ff16151514156104d85761050d565b6001600560006101000a81548160ff02191690831515021790555081600481905550600560009054906101000a900460ff1690505b919050565b600080600060019054906101000a900460ff1660ff161415610537576001905061053c565b600090505b90565b60008060016000600260006001815260200190815260200160002060009054906101000a900473ffffffffffffffffffffffffffffffffffffffff1673ffffffffffffffffffffffffffffffffffffffff1673ffffffffffffffffffffffffffffffffffffffff16815260200190815260200160002081905550600190505b60058110156106d6576002600060018301815260200190815260200160002060009054906101000a900473ffffffffffffffffffffffffffffffffffffffff166002600083815260200190815260200160002060006101000a81548173ffffffffffffffffffffffffffffffffffffffff021916908373ffffffffffffffffffffffffffffffffffffffff16021790555080600160006002600060018601815260200190815260200160002060009054906101000a900473ffffffffffffffffffffffffffffffffffffffff1673ffffffffffffffffffffffffffffffffffffffff1673ffffffffffffffffffffffffffffffffffffffff1681526020019081526020016000208190555080806001019150506105be565b6001600060018282829054906101000a900460ff160392506101000a81548160ff021916908360ff16021790555042600381905550505600a165627a7a72305820fa50cd3d6c6087810b2a718e662d60ffb2694b88ba6aa1eb6d23c340f2ffe6af0029",
  "source": "pragma solidity ^0.4.15;\n\n/**\n * @title Queue\n * @dev Data structure contract used in `Crowdsale.sol`\n * Allows buyers to line up on a first-in-first-out basis\n * See this example: http://interactivepython.org/courselib/static/pythonds/BasicDS/ImplementingaQueueinPython.html\n */\n\ncontract Queue {\n\t/* State variables */\n\t// Must have a finite size, please keep this set to 5\n\tuint8 size = 5;\n\tuint8 currentSize;\n\t//Not sure if this is correct but I cannot find any members which can access Array type data efficeintly\n\tmapping(address => uint) queuersAddressToIndex;\n\tmapping(uint => address) queuersIndexToAddress;\n\tuint timeInQueue;\n\t// Must have a time limit someone can keep their spot in the front; this prevents griefing\n\tuint public timeLimit;\n\n\tbool public hasOwnerSetup;\n\n\t/* Add events */\n\t// \tEvents:\n\tevent QueueTimeLimitReached(address removedAddress);\n\n\tmodifier ownerHasNotSetup() {\n\t\tif (hasOwnerSetup == true) {\n\t\t\treturn;\n\t\t}\n\t\t_;\n\t}\n\n\t/* Add constructor */\n\tfunction Queue() {\n\t\thasOwnerSetup = false;\n\t\tcurrentSize = 0;\n\t}\n\n\tfunction setTimeLimit(uint _timeLimit) ownerHasNotSetup() returns (bool success) {\n\t\thasOwnerSetup = true;\n\t\ttimeLimit = _timeLimit;\n\t\treturn hasOwnerSetup;\n\t}\n\n\t/* Returns the number of people waiting in line */\n\tfunction qsize() external view returns(uint8) {\n\t\treturn currentSize;\n\t}\n\n\t/* Returns whether the queue is empty or not */\n\tfunction empty() external view returns(bool) {\n\t\tif (currentSize == 0) {\n\t\t\treturn true;\n\t\t}\n\t\treturn false;\n\t}\n\n\t/* Returns the address of the person in the front of the queue */\n\tfunction getFirst() constant returns(address) {\n\t\treturn queuersIndexToAddress[1];\n\t}\n\n\t/* Allows `msg.sender` to check their position in the queue */\n\tfunction checkPlace() constant returns(uint8) {\n\t\treturn uint8(queuersAddressToIndex[msg.sender]);\n\t}\n\n\t/* Allows anyone to expel the first person in line if their time\n\t * limit is up\n\t */\n\tfunction checkTime() external{\n\t\t//Time in queue unsure whether it depends on time in the 1st position or in queue\n\t\tuint currentTimeInQueue = now - timeInQueue;\n\n\t\tif (currentTimeInQueue > timeLimit) {\n\t\t\taddress first = getFirst();\n\t\t\tdequeue();\n\t\t\tQueueTimeLimitReached(first);\n\t\t}\n\t}\n\n\t/* Removes the first person in line; either when their time is up or when\n\t * they are done with their purchase\n\t */\n\tfunction dequeue() private {\n\t\tqueuersAddressToIndex[queuersIndexToAddress[1]] = 0;\n\t\tfor (uint index = 1; index < 5; index++) {\n\t\t\t//QItA \t[1 | 0xabc] --> to be deleted\n\t\t\t//\t\t[2 | 0xbcd] --> to be moved up\n\t\t\t//QAtI  [0xabc | 1] --> to be deleted\n\t\t\t//\t\t[0xbcd | 2] --> to be moved up\n\t\t\tqueuersIndexToAddress[index] = queuersIndexToAddress[index+1];\n\t\t\tqueuersAddressToIndex[queuersIndexToAddress[index+1]] = index;\n\t\t}\n\t\tcurrentSize -= 1;\n\t\ttimeInQueue = now;\n\t}\n\n\t/* Places `addr` in the first empty position in the queue */\n\tfunction enqueue(address addr) external{\n\t\tif (currentSize < size) {\n\t\t\tcurrentSize += 1;\n\t\t\tqueuersIndexToAddress[currentSize] = msg.sender;\n\t\t\tqueuersAddressToIndex[msg.sender] = currentSize;\n\t\t\t//unsure about function, check out comment in CheckTime()\n\t\t\t/* timeInQueue[msg.sender] = now; */\n\t\t}\n\t\t//Not allowed to overwrite if queue is full\n\t\trevert();\n\t}\n}\n",
  "sourcePath": "/Users/jasminesingh/blockchain-for-developers/midterm-p1-1/contracts/Queue.sol",
  "compiler": {
    "name": "solc",
    "version": "0.4.19+commit.c4cbbb05.Emscripten.clang"
  },
  "schemaVersion": "2.0.0",
  "updatedAt": "2018-03-08T23:25:10.763Z"
}