{
  "contractName": "Token",
  "abi": [
    {
      "constant": true,
      "inputs": [],
      "name": "hasOwnerSetup",
      "outputs": [
        {
          "name": "",
          "type": "bool"
        }
      ],
      "payable": false,
      "stateMutability": "view",
      "type": "function"
    },
    {
      "constant": true,
      "inputs": [],
      "name": "remainingSupply",
      "outputs": [
        {
          "name": "",
          "type": "uint256"
        }
      ],
      "payable": false,
      "stateMutability": "view",
      "type": "function"
    },
    {
      "inputs": [],
      "payable": false,
      "stateMutability": "nonpayable",
      "type": "constructor"
    },
    {
      "anonymous": false,
      "inputs": [
        {
          "indexed": false,
          "name": "burnerAddress",
          "type": "address"
        },
        {
          "indexed": false,
          "name": "tokensBurnt",
          "type": "uint256"
        }
      ],
      "name": "TokensBurned",
      "type": "event"
    },
    {
      "anonymous": false,
      "inputs": [
        {
          "indexed": true,
          "name": "_from",
          "type": "address"
        },
        {
          "indexed": true,
          "name": "_to",
          "type": "address"
        },
        {
          "indexed": false,
          "name": "_value",
          "type": "uint256"
        }
      ],
      "name": "Transfer",
      "type": "event"
    },
    {
      "anonymous": false,
      "inputs": [
        {
          "indexed": true,
          "name": "_owner",
          "type": "address"
        },
        {
          "indexed": true,
          "name": "_spender",
          "type": "address"
        },
        {
          "indexed": false,
          "name": "_value",
          "type": "uint256"
        }
      ],
      "name": "Approval",
      "type": "event"
    },
    {
      "constant": false,
      "inputs": [
        {
          "name": "_initialSupply",
          "type": "uint256"
        }
      ],
      "name": "setTokenSupply",
      "outputs": [
        {
          "name": "success",
          "type": "bool"
        }
      ],
      "payable": false,
      "stateMutability": "nonpayable",
      "type": "function"
    },
    {
      "constant": true,
      "inputs": [],
      "name": "totalSupply",
      "outputs": [
        {
          "name": "",
          "type": "uint256"
        }
      ],
      "payable": false,
      "stateMutability": "view",
      "type": "function"
    },
    {
      "constant": true,
      "inputs": [
        {
          "name": "tokenOwner",
          "type": "address"
        }
      ],
      "name": "balanceOf",
      "outputs": [
        {
          "name": "balance",
          "type": "uint256"
        }
      ],
      "payable": false,
      "stateMutability": "view",
      "type": "function"
    },
    {
      "constant": true,
      "inputs": [
        {
          "name": "tokenOwner",
          "type": "address"
        },
        {
          "name": "spender",
          "type": "address"
        }
      ],
      "name": "allowance",
      "outputs": [
        {
          "name": "remaining",
          "type": "uint256"
        }
      ],
      "payable": false,
      "stateMutability": "view",
      "type": "function"
    },
    {
      "constant": false,
      "inputs": [
        {
          "name": "to",
          "type": "address"
        },
        {
          "name": "tokens",
          "type": "uint256"
        }
      ],
      "name": "transfer",
      "outputs": [
        {
          "name": "success",
          "type": "bool"
        }
      ],
      "payable": false,
      "stateMutability": "nonpayable",
      "type": "function"
    },
    {
      "constant": false,
      "inputs": [
        {
          "name": "spender",
          "type": "address"
        },
        {
          "name": "tokens",
          "type": "uint256"
        }
      ],
      "name": "approve",
      "outputs": [
        {
          "name": "success",
          "type": "bool"
        }
      ],
      "payable": false,
      "stateMutability": "nonpayable",
      "type": "function"
    },
    {
      "constant": false,
      "inputs": [
        {
          "name": "from",
          "type": "address"
        },
        {
          "name": "to",
          "type": "address"
        },
        {
          "name": "tokens",
          "type": "uint256"
        }
      ],
      "name": "transferFrom",
      "outputs": [
        {
          "name": "success",
          "type": "bool"
        }
      ],
      "payable": false,
      "stateMutability": "nonpayable",
      "type": "function"
    },
    {
      "constant": false,
      "inputs": [
        {
          "name": "tokens",
          "type": "uint256"
        }
      ],
      "name": "burnToken",
      "outputs": [
        {
          "name": "success",
          "type": "bool"
        }
      ],
      "payable": false,
      "stateMutability": "nonpayable",
      "type": "function"
    },
    {
      "constant": false,
      "inputs": [
        {
          "name": "amount",
          "type": "uint256"
        }
      ],
      "name": "addToken",
      "outputs": [
        {
          "name": "success",
          "type": "bool"
        }
      ],
      "payable": false,
      "stateMutability": "nonpayable",
      "type": "function"
    },
    {
      "constant": false,
      "inputs": [
        {
          "name": "amount",
          "type": "uint256"
        }
      ],
      "name": "subtractToken",
      "outputs": [
        {
          "name": "success",
          "type": "bool"
        }
      ],
      "payable": false,
      "stateMutability": "nonpayable",
      "type": "function"
    },
    {
      "constant": false,
      "inputs": [
        {
          "name": "buyer",
          "type": "address"
        },
        {
          "name": "amount",
          "type": "uint256"
        }
      ],
      "name": "addToBalance",
      "outputs": [
        {
          "name": "success",
          "type": "bool"
        }
      ],
      "payable": false,
      "stateMutability": "nonpayable",
      "type": "function"
    },
    {
      "constant": false,
      "inputs": [
        {
          "name": "seller",
          "type": "address"
        },
        {
          "name": "amount",
          "type": "uint256"
        }
      ],
      "name": "removeFromBalance",
      "outputs": [
        {
          "name": "success",
          "type": "bool"
        }
      ],
      "payable": false,
      "stateMutability": "nonpayable",
      "type": "function"
    }
  ],
  "bytecode": "0x6060604052341561000f57600080fd5b6000600560006101000a81548160ff021916908315150217905550610e45806100396000396000f3006060604052600436106100d0576000357c0100000000000000000000000000000000000000000000000000000000900463ffffffff168063095ea7b3146100d5578063179d375c1461012f57806318160ddd1461016a5780631e05dde7146101935780632087bedd146101ce57806323b872dd14610228578063246029f4146102a157806370a08231146102ce5780637b47ec1a1461031b5780639bbf570314610356578063a9059cbb14610391578063b08079a6146103eb578063da0239a614610445578063dd62ed3e1461046e575b600080fd5b34156100e057600080fd5b610115600480803573ffffffffffffffffffffffffffffffffffffffff169060200190919080359060200190919050506104da565b604051808215151515815260200191505060405180910390f35b341561013a57600080fd5b610150600480803590602001909190505061064a565b604051808215151515815260200191505060405180910390f35b341561017557600080fd5b61017d610665565b6040518082815260200191505060405180910390f35b341561019e57600080fd5b6101b4600480803590602001909190505061066f565b604051808215151515815260200191505060405180910390f35b34156101d957600080fd5b61020e600480803573ffffffffffffffffffffffffffffffffffffffff1690602001909190803590602001909190505061068a565b604051808215151515815260200191505060405180910390f35b341561023357600080fd5b610287600480803573ffffffffffffffffffffffffffffffffffffffff1690602001909190803573ffffffffffffffffffffffffffffffffffffffff169060200190919080359060200190919050506106e3565b604051808215151515815260200191505060405180910390f35b34156102ac57600080fd5b6102b46109aa565b604051808215151515815260200191505060405180910390f35b34156102d957600080fd5b610305600480803573ffffffffffffffffffffffffffffffffffffffff169060200190919050506109bd565b6040518082815260200191505060405180910390f35b341561032657600080fd5b61033c6004808035906020019091905050610a06565b604051808215151515815260200191505060405180910390f35b341561036157600080fd5b6103776004808035906020019091905050610b2a565b604051808215151515815260200191505060405180910390f35b341561039c57600080fd5b6103d1600480803573ffffffffffffffffffffffffffffffffffffffff16906020019091908035906020019091905050610b6c565b604051808215151515815260200191505060405180910390f35b34156103f657600080fd5b61042b600480803573ffffffffffffffffffffffffffffffffffffffff16906020019091908035906020019091905050610d33565b604051808215151515815260200191505060405180910390f35b341561045057600080fd5b610458610d8c565b6040518082815260200191505060405180910390f35b341561047957600080fd5b6104c4600480803573ffffffffffffffffffffffffffffffffffffffff1690602001909190803573ffffffffffffffffffffffffffffffffffffffff16906020019091905050610d92565b6040518082815260200191505060405180910390f35b600081600460003373ffffffffffffffffffffffffffffffffffffffff1673ffffffffffffffffffffffffffffffffffffffff16815260200190815260200160002060008573ffffffffffffffffffffffffffffffffffffffff1673ffffffffffffffffffffffffffffffffffffffff1681526020019081526020016000205401600460003373ffffffffffffffffffffffffffffffffffffffff1673ffffffffffffffffffffffffffffffffffffffff16815260200190815260200160002060008573ffffffffffffffffffffffffffffffffffffffff1673ffffffffffffffffffffffffffffffffffffffff168152602001908152602001600020819055508273ffffffffffffffffffffffffffffffffffffffff163373ffffffffffffffffffffffffffffffffffffffff167f8c5be1e5ebec7d5bd14f71427d1e84f3dd0314c0f7b2291e5b200ac8c7c3b925846040518082815260200191505060405180910390a36001905092915050565b60008160026000828254019250508190555060019050919050565b6000600254905090565b60008160026000828254039250508190555060019050919050565b600081600360008573ffffffffffffffffffffffffffffffffffffffff1673ffffffffffffffffffffffffffffffffffffffff168152602001908152602001600020600082825403925050819055506001905092915050565b6000600360008573ffffffffffffffffffffffffffffffffffffffff1673ffffffffffffffffffffffffffffffffffffffff1681526020019081526020016000205482111561073157600080fd5b81600360008673ffffffffffffffffffffffffffffffffffffffff1673ffffffffffffffffffffffffffffffffffffffff1681526020019081526020016000205403600360008673ffffffffffffffffffffffffffffffffffffffff1673ffffffffffffffffffffffffffffffffffffffff1681526020019081526020016000208190555081600460008673ffffffffffffffffffffffffffffffffffffffff1673ffffffffffffffffffffffffffffffffffffffff16815260200190815260200160002060003373ffffffffffffffffffffffffffffffffffffffff1673ffffffffffffffffffffffffffffffffffffffff1681526020019081526020016000205403600460008673ffffffffffffffffffffffffffffffffffffffff1673ffffffffffffffffffffffffffffffffffffffff16815260200190815260200160002060003373ffffffffffffffffffffffffffffffffffffffff1673ffffffffffffffffffffffffffffffffffffffff1681526020019081526020016000208190555081600360008573ffffffffffffffffffffffffffffffffffffffff1673ffffffffffffffffffffffffffffffffffffffff1681526020019081526020016000205401600360008573ffffffffffffffffffffffffffffffffffffffff1673ffffffffffffffffffffffffffffffffffffffff168152602001908152602001600020819055508273ffffffffffffffffffffffffffffffffffffffff168473ffffffffffffffffffffffffffffffffffffffff167fddf252ad1be2c89b69c2b068fc378daa952ba7f163c4a11628f55a4df523b3ef846040518082815260200191505060405180910390a3600190509392505050565b600560009054906101000a900460ff1681565b6000600360008373ffffffffffffffffffffffffffffffffffffffff1673ffffffffffffffffffffffffffffffffffffffff168152602001908152602001600020549050919050565b6000600360003373ffffffffffffffffffffffffffffffffffffffff1673ffffffffffffffffffffffffffffffffffffffff16815260200190815260200160002054821115610a585760009050610b25565b8160026000828254039250508190555081600360003373ffffffffffffffffffffffffffffffffffffffff1673ffffffffffffffffffffffffffffffffffffffff168152602001908152602001600020600082825403925050819055507ffd38818f5291bf0bb3a2a48aadc06ba8757865d1dabd804585338aab3009dcb63383604051808373ffffffffffffffffffffffffffffffffffffffff1673ffffffffffffffffffffffffffffffffffffffff1681526020018281526020019250505060405180910390a1600190505b919050565b600060011515600560009054906101000a900460ff1615151415610b4d57610b67565b81600281905550600560009054906101000a900460ff1690505b919050565b6000600360003373ffffffffffffffffffffffffffffffffffffffff1673ffffffffffffffffffffffffffffffffffffffff16815260200190815260200160002054821115610bba57600080fd5b81600360003373ffffffffffffffffffffffffffffffffffffffff1673ffffffffffffffffffffffffffffffffffffffff1681526020019081526020016000205403600360003373ffffffffffffffffffffffffffffffffffffffff1673ffffffffffffffffffffffffffffffffffffffff1681526020019081526020016000208190555081600360008573ffffffffffffffffffffffffffffffffffffffff1673ffffffffffffffffffffffffffffffffffffffff1681526020019081526020016000205401600360008573ffffffffffffffffffffffffffffffffffffffff1673ffffffffffffffffffffffffffffffffffffffff168152602001908152602001600020819055508273ffffffffffffffffffffffffffffffffffffffff163373ffffffffffffffffffffffffffffffffffffffff167fddf252ad1be2c89b69c2b068fc378daa952ba7f163c4a11628f55a4df523b3ef846040518082815260200191505060405180910390a36001905092915050565b600081600360008573ffffffffffffffffffffffffffffffffffffffff1673ffffffffffffffffffffffffffffffffffffffff168152602001908152602001600020600082825401925050819055506001905092915050565b60015481565b6000600460008473ffffffffffffffffffffffffffffffffffffffff1673ffffffffffffffffffffffffffffffffffffffff16815260200190815260200160002060008373ffffffffffffffffffffffffffffffffffffffff1673ffffffffffffffffffffffffffffffffffffffff168152602001908152602001600020549050929150505600a165627a7a72305820804b53e3be58f2a44453f0e4bcf6dbd91aa220145069bf9feaf419e1e73992990029",
  "source": "pragma solidity ^0.4.15;\n\nimport './interfaces/ERC20Interface.sol';\n\n/**\n * @title Token\n * @dev Contract that implements ERC20 token standard\n * Is deployed by `Crowdsale.sol`, keeps track of balances, etc.\n */\n\ncontract Token is ERC20Interface {\n// \t// YOUR CODE HERE\n\tuint public remainingSupply;\n\tuint public totalSupply;\n\tmapping(address => uint) balances;\n\tmapping(address => mapping(address => uint)) allowed;\n\n\tbool public hasOwnerSetup;\n\n\t// Events:\n\t// All standard events from ERC20Interface.sol\n\t// Fired on buyers burning their tokens\n\tevent TokensBurned(address burnerAddress, uint tokensBurnt);\n\n\tmodifier ownerHasNotSetup() {\n\t\tif (hasOwnerSetup == true) {\n\t\t\treturn;\n\t\t}\n\t\t_;\n\t}\n\n\t// totalSupply would be set on deployment of Crowdsale.sol\n\tfunction Token() public {\n      \thasOwnerSetup = false;\n  \t}\n\n\tfunction setTokenSupply(uint _initialSupply) public ownerHasNotSetup() returns (bool success) {\n\t\ttotalSupply = _initialSupply;\n\t\treturn hasOwnerSetup;\n\t}\t\n\t  \n\t// \tMust implement ERC20Interface.sol fully\n\t// \tcontract ERC20Interface {\n\t//     function totalSupply() public constant returns (uint);\n\tfunction totalSupply() public view returns(uint) {\n\t\treturn totalSupply;\n\t}\n\n\t//     function balanceOf(address tokenOwner) public constant returns (uint balance);\n\tfunction balanceOf(address tokenOwner) public view returns(uint balance) {\n\t\treturn balances[tokenOwner];\n\t}\n\n\t// this function returns the amount of tokens approved by the owner that can be transferred to spender's account\n\t//     function allowance(address tokenOwner, address spender) public constant returns (uint remaining);\n\tfunction allowance(address tokenOwner, address spender) public constant returns (uint remaining) {\n\t\treturn allowed[tokenOwner][spender];\n\t}\n\n\t//     function transfer(address to, uint tokens) public returns (bool success);\n\tfunction transfer(address to, uint tokens) public returns (bool success) {\n\t\tif (tokens > balances[msg.sender]) {\n\t\t\trevert();\n\t\t\treturn false;\n\t\t}\n\t\t\tbalances[msg.sender] = balances[msg.sender] - tokens;\n\t\t\tbalances[to] = balances[to] + tokens;\n\t\t\tTransfer(msg.sender, to, tokens);\n\t\t\treturn true;\n\t}\n\n\t// Token owner approves spender to 'transfer from' account\n\t//     function approve(address spender, uint tokens) public returns (bool success);\n\tfunction approve(address spender, uint tokens) public returns (bool success) {\n\t\t\tallowed[msg.sender][spender] = allowed[msg.sender][spender] + tokens;\n\t\t\tApproval(msg.sender, spender, tokens);\n\t\t\treturn true;\n\t}\n\t//     function transferFrom(address from, address to, uint tokens) public returns (bool success);\n\tfunction transferFrom(address from, address to, uint tokens) public returns (bool success) {\n\t\tif (tokens > balances[from]) {\n\t\t\trevert();\n\t\t\treturn false;\n\t\t}\n\t\tbalances[from] = balances[from] - tokens;\n    allowed[from][msg.sender] = allowed[from][msg.sender] - tokens;\n    balances[to] = balances[to] + tokens;\n    Transfer(from, to, tokens);\n    return true;\n\t}\n\n\t// Users:\n\t// Must be able to burn their tokens\n\t// This amount would be subtracted from totalSupply\n\tfunction burnToken(uint tokens) public returns (bool success) {\n\t\tif (tokens > balances[msg.sender]) {\n\t\t\treturn false;\n\t\t} else {\n\t\t\ttotalSupply -= tokens;\n\t\t\tbalances[msg.sender] -= tokens;\n\t\t\tTokensBurned(msg.sender, tokens);\n\t\t\treturn true;\n\t\t}\n\n\t}\n\n\t// Must work in conjunction with Crowdsale.sol\n\tfunction addToken(uint amount) public returns (bool success) {\n\t\ttotalSupply += amount;\n\t\treturn true;\n\t}\n\n\tfunction subtractToken(uint amount) public returns (bool success) {\n\t\ttotalSupply -= amount;\n\t\treturn true;\n\t}\n\n\tfunction addToBalance(address buyer, uint amount) public returns (bool success){\n    \tbalances[buyer] += amount;\n\t\treturn true;\n  \t}\n\n  \tfunction removeFromBalance(address seller, uint amount) public returns (bool success) {\n    \tbalances[seller] -= amount;\n\t\treturn true;\n  \t}\n\n\t// function remainingSupply() public returns (uint) {\n\t// \treturn remainingSupply;\n\t// }\n\n\n\n\n}\n",
  "sourcePath": "/Users/jasminesingh/blockchain-for-developers/midterm-p1-1/contracts/Token.sol",
  "compiler": {
    "name": "solc",
    "version": "0.4.19+commit.c4cbbb05.Emscripten.clang"
  },
  "schemaVersion": "2.0.0",
  "updatedAt": "2018-03-06T22:10:56.434Z"
}