{
  "contractName": "Token",
  "abi": [
    {
      "constant": true,
      "inputs": [],
      "name": "remainingSupply",
      "outputs": [
        {
          "name": "",
          "type": "uint256"
        }
      ],
      "payable": false,
      "stateMutability": "view",
      "type": "function"
    },
    {
      "inputs": [
        {
          "name": "initialSupply",
          "type": "uint256"
        }
      ],
      "payable": false,
      "stateMutability": "nonpayable",
      "type": "constructor"
    },
    {
      "anonymous": false,
      "inputs": [
        {
          "indexed": false,
          "name": "burnerAddress",
          "type": "address"
        },
        {
          "indexed": false,
          "name": "tokensBurnt",
          "type": "uint256"
        }
      ],
      "name": "TokensBurned",
      "type": "event"
    },
    {
      "anonymous": false,
      "inputs": [
        {
          "indexed": true,
          "name": "_from",
          "type": "address"
        },
        {
          "indexed": true,
          "name": "_to",
          "type": "address"
        },
        {
          "indexed": false,
          "name": "_value",
          "type": "uint256"
        }
      ],
      "name": "Transfer",
      "type": "event"
    },
    {
      "anonymous": false,
      "inputs": [
        {
          "indexed": true,
          "name": "_owner",
          "type": "address"
        },
        {
          "indexed": true,
          "name": "_spender",
          "type": "address"
        },
        {
          "indexed": false,
          "name": "_value",
          "type": "uint256"
        }
      ],
      "name": "Approval",
      "type": "event"
    },
    {
      "constant": true,
      "inputs": [],
      "name": "totalSupply",
      "outputs": [
        {
          "name": "",
          "type": "uint256"
        }
      ],
      "payable": false,
      "stateMutability": "view",
      "type": "function"
    },
    {
      "constant": true,
      "inputs": [
        {
          "name": "tokenOwner",
          "type": "address"
        }
      ],
      "name": "balanceOf",
      "outputs": [
        {
          "name": "balance",
          "type": "uint256"
        }
      ],
      "payable": false,
      "stateMutability": "view",
      "type": "function"
    },
    {
      "constant": true,
      "inputs": [
        {
          "name": "tokenOwner",
          "type": "address"
        },
        {
          "name": "spender",
          "type": "address"
        }
      ],
      "name": "allowance",
      "outputs": [
        {
          "name": "remaining",
          "type": "uint256"
        }
      ],
      "payable": false,
      "stateMutability": "view",
      "type": "function"
    },
    {
      "constant": false,
      "inputs": [
        {
          "name": "to",
          "type": "address"
        },
        {
          "name": "tokens",
          "type": "uint256"
        }
      ],
      "name": "transfer",
      "outputs": [
        {
          "name": "success",
          "type": "bool"
        }
      ],
      "payable": false,
      "stateMutability": "nonpayable",
      "type": "function"
    },
    {
      "constant": false,
      "inputs": [
        {
          "name": "spender",
          "type": "address"
        },
        {
          "name": "tokens",
          "type": "uint256"
        }
      ],
      "name": "approve",
      "outputs": [
        {
          "name": "success",
          "type": "bool"
        }
      ],
      "payable": false,
      "stateMutability": "nonpayable",
      "type": "function"
    },
    {
      "constant": false,
      "inputs": [
        {
          "name": "from",
          "type": "address"
        },
        {
          "name": "to",
          "type": "address"
        },
        {
          "name": "tokens",
          "type": "uint256"
        }
      ],
      "name": "transferFrom",
      "outputs": [
        {
          "name": "success",
          "type": "bool"
        }
      ],
      "payable": false,
      "stateMutability": "nonpayable",
      "type": "function"
    },
    {
      "constant": false,
      "inputs": [
        {
          "name": "burnerAddress",
          "type": "address"
        },
        {
          "name": "tokens",
          "type": "uint256"
        }
      ],
      "name": "burnToken",
      "outputs": [
        {
          "name": "success",
          "type": "bool"
        }
      ],
      "payable": false,
      "stateMutability": "nonpayable",
      "type": "function"
    },
    {
      "constant": false,
      "inputs": [
        {
          "name": "amount",
          "type": "uint256"
        }
      ],
      "name": "addToken",
      "outputs": [
        {
          "name": "success",
          "type": "bool"
        }
      ],
      "payable": false,
      "stateMutability": "nonpayable",
      "type": "function"
    },
    {
      "constant": false,
      "inputs": [
        {
          "name": "amount",
          "type": "uint256"
        }
      ],
      "name": "subtractToken",
      "outputs": [
        {
          "name": "success",
          "type": "bool"
        }
      ],
      "payable": false,
      "stateMutability": "nonpayable",
      "type": "function"
    },
    {
      "constant": false,
      "inputs": [
        {
          "name": "buyer",
          "type": "address"
        },
        {
          "name": "amount",
          "type": "uint256"
        }
      ],
      "name": "addToBalance",
      "outputs": [
        {
          "name": "success",
          "type": "bool"
        }
      ],
      "payable": false,
      "stateMutability": "nonpayable",
      "type": "function"
    },
    {
      "constant": false,
      "inputs": [
        {
          "name": "seller",
          "type": "address"
        },
        {
          "name": "amount",
          "type": "uint256"
        }
      ],
      "name": "removeFromBalance",
      "outputs": [
        {
          "name": "success",
          "type": "bool"
        }
      ],
      "payable": false,
      "stateMutability": "nonpayable",
      "type": "function"
    }
  ],
  "bytecode": "0x6060604052341561000f57600080fd5b604051602080610d3c833981016040528080519060200190919050508060028190555050610cfa806100426000396000f3006060604052600436106100ba576000357c0100000000000000000000000000000000000000000000000000000000900463ffffffff168063095ea7b3146100bf578063179d375c1461011957806318160ddd146101545780631e05dde71461017d5780632087bedd146101b857806323b872dd1461021257806370a082311461028b578063a9059cbb146102d8578063b08079a614610332578063d1df306c1461038c578063da0239a6146103e6578063dd62ed3e1461040f575b600080fd5b34156100ca57600080fd5b6100ff600480803573ffffffffffffffffffffffffffffffffffffffff1690602001909190803590602001909190505061047b565b604051808215151515815260200191505060405180910390f35b341561012457600080fd5b61013a60048080359060200190919050506105eb565b604051808215151515815260200191505060405180910390f35b341561015f57600080fd5b610167610606565b6040518082815260200191505060405180910390f35b341561018857600080fd5b61019e6004808035906020019091905050610610565b604051808215151515815260200191505060405180910390f35b34156101c357600080fd5b6101f8600480803573ffffffffffffffffffffffffffffffffffffffff1690602001909190803590602001909190505061062b565b604051808215151515815260200191505060405180910390f35b341561021d57600080fd5b610271600480803573ffffffffffffffffffffffffffffffffffffffff1690602001909190803573ffffffffffffffffffffffffffffffffffffffff16906020019091908035906020019091905050610684565b604051808215151515815260200191505060405180910390f35b341561029657600080fd5b6102c2600480803573ffffffffffffffffffffffffffffffffffffffff169060200190919050506108ff565b6040518082815260200191505060405180910390f35b34156102e357600080fd5b610318600480803573ffffffffffffffffffffffffffffffffffffffff16906020019091908035906020019091905050610948565b604051808215151515815260200191505060405180910390f35b341561033d57600080fd5b610372600480803573ffffffffffffffffffffffffffffffffffffffff16906020019091908035906020019091905050610ac3565b604051808215151515815260200191505060405180910390f35b341561039757600080fd5b6103cc600480803573ffffffffffffffffffffffffffffffffffffffff16906020019091908035906020019091905050610b1c565b604051808215151515815260200191505060405180910390f35b34156103f157600080fd5b6103f9610c41565b6040518082815260200191505060405180910390f35b341561041a57600080fd5b610465600480803573ffffffffffffffffffffffffffffffffffffffff1690602001909190803573ffffffffffffffffffffffffffffffffffffffff16906020019091905050610c47565b6040518082815260200191505060405180910390f35b600081600460003373ffffffffffffffffffffffffffffffffffffffff1673ffffffffffffffffffffffffffffffffffffffff16815260200190815260200160002060008573ffffffffffffffffffffffffffffffffffffffff1673ffffffffffffffffffffffffffffffffffffffff1681526020019081526020016000205401600460003373ffffffffffffffffffffffffffffffffffffffff1673ffffffffffffffffffffffffffffffffffffffff16815260200190815260200160002060008573ffffffffffffffffffffffffffffffffffffffff1673ffffffffffffffffffffffffffffffffffffffff168152602001908152602001600020819055508273ffffffffffffffffffffffffffffffffffffffff163373ffffffffffffffffffffffffffffffffffffffff167f8c5be1e5ebec7d5bd14f71427d1e84f3dd0314c0f7b2291e5b200ac8c7c3b925846040518082815260200191505060405180910390a36001905092915050565b60008160026000828254019250508190555060019050919050565b6000600254905090565b60008160026000828254039250508190555060019050919050565b600081600360008573ffffffffffffffffffffffffffffffffffffffff1673ffffffffffffffffffffffffffffffffffffffff168152602001908152602001600020600082825403925050819055506001905092915050565b600081600360008673ffffffffffffffffffffffffffffffffffffffff1673ffffffffffffffffffffffffffffffffffffffff1681526020019081526020016000205403600360008673ffffffffffffffffffffffffffffffffffffffff1673ffffffffffffffffffffffffffffffffffffffff1681526020019081526020016000208190555081600460008673ffffffffffffffffffffffffffffffffffffffff1673ffffffffffffffffffffffffffffffffffffffff16815260200190815260200160002060003373ffffffffffffffffffffffffffffffffffffffff1673ffffffffffffffffffffffffffffffffffffffff1681526020019081526020016000205403600460008673ffffffffffffffffffffffffffffffffffffffff1673ffffffffffffffffffffffffffffffffffffffff16815260200190815260200160002060003373ffffffffffffffffffffffffffffffffffffffff1673ffffffffffffffffffffffffffffffffffffffff1681526020019081526020016000208190555081600360008573ffffffffffffffffffffffffffffffffffffffff1673ffffffffffffffffffffffffffffffffffffffff1681526020019081526020016000205401600360008573ffffffffffffffffffffffffffffffffffffffff1673ffffffffffffffffffffffffffffffffffffffff168152602001908152602001600020819055508273ffffffffffffffffffffffffffffffffffffffff168473ffffffffffffffffffffffffffffffffffffffff167fddf252ad1be2c89b69c2b068fc378daa952ba7f163c4a11628f55a4df523b3ef846040518082815260200191505060405180910390a3600190509392505050565b6000600360008373ffffffffffffffffffffffffffffffffffffffff1673ffffffffffffffffffffffffffffffffffffffff168152602001908152602001600020549050919050565b600081600360003373ffffffffffffffffffffffffffffffffffffffff1673ffffffffffffffffffffffffffffffffffffffff1681526020019081526020016000205403600360003373ffffffffffffffffffffffffffffffffffffffff1673ffffffffffffffffffffffffffffffffffffffff1681526020019081526020016000208190555081600360008573ffffffffffffffffffffffffffffffffffffffff1673ffffffffffffffffffffffffffffffffffffffff1681526020019081526020016000205403600360008573ffffffffffffffffffffffffffffffffffffffff1673ffffffffffffffffffffffffffffffffffffffff168152602001908152602001600020819055508273ffffffffffffffffffffffffffffffffffffffff163373ffffffffffffffffffffffffffffffffffffffff167fddf252ad1be2c89b69c2b068fc378daa952ba7f163c4a11628f55a4df523b3ef846040518082815260200191505060405180910390a36001905092915050565b600081600360008573ffffffffffffffffffffffffffffffffffffffff1673ffffffffffffffffffffffffffffffffffffffff168152602001908152602001600020600082825401925050819055506001905092915050565b6000600360008473ffffffffffffffffffffffffffffffffffffffff1673ffffffffffffffffffffffffffffffffffffffff16815260200190815260200160002054821115610b6e5760009050610c3b565b8160026000828254039250508190555081600360008573ffffffffffffffffffffffffffffffffffffffff1673ffffffffffffffffffffffffffffffffffffffff168152602001908152602001600020600082825403925050819055507ffd38818f5291bf0bb3a2a48aadc06ba8757865d1dabd804585338aab3009dcb68383604051808373ffffffffffffffffffffffffffffffffffffffff1673ffffffffffffffffffffffffffffffffffffffff1681526020018281526020019250505060405180910390a1600190505b92915050565b60015481565b6000600460008473ffffffffffffffffffffffffffffffffffffffff1673ffffffffffffffffffffffffffffffffffffffff16815260200190815260200160002060008373ffffffffffffffffffffffffffffffffffffffff1673ffffffffffffffffffffffffffffffffffffffff168152602001908152602001600020549050929150505600a165627a7a72305820e7e4d1ff4d06a2a6b51169051bf12ad69147f568d66a193e9559aaea24a072ba0029",
  "source": "pragma solidity ^0.4.15;\n\nimport './interfaces/ERC20Interface.sol';\n\n/**\n * @title Token\n * @dev Contract that implements ERC20 token standard\n * Is deployed by `Crowdsale.sol`, keeps track of balances, etc.\n */\n\ncontract Token is ERC20Interface {\n// \t// YOUR CODE HERE\n\tuint public remainingSupply;\n\tuint public totalSupply;\n\tmapping(address => uint) balances;\n\tmapping(address => mapping(address => uint)) allowed;\n\n\t// Events:\n\t// All standard events from ERC20Interface.sol\n\t// Fired on buyers burning their tokens\n\tevent TokensBurned(address burnerAddress, uint tokensBurnt);\n\n\t// totalSupply would be set on deployment of Crowdsale.sol\n\tfunction Token(uint initialSupply) public {\n      totalSupply = initialSupply;\n  \t}\t\n\t  \n\t// \tMust implement ERC20Interface.sol fully\n\t// \tcontract ERC20Interface {\n\t//     function totalSupply() public constant returns (uint);\n\tfunction totalSupply() public view returns(uint) {\n\t\treturn totalSupply;\n\t}\n\n\t//     function balanceOf(address tokenOwner) public constant returns (uint balance);\n\tfunction balanceOf(address tokenOwner) public view returns(uint balance) {\n\t\treturn balances[tokenOwner];\n\t}\n\n\t// this function returns the amount of tokens approved by the owner that can be transferred to spender's account\n\t//     function allowance(address tokenOwner, address spender) public constant returns (uint remaining);\n\tfunction allowance(address tokenOwner, address spender) public constant returns (uint remaining) {\n\t\treturn allowed[tokenOwner][spender];\n\t}\n\n\t//     function transfer(address to, uint tokens) public returns (bool success);\n\tfunction transfer(address to, uint tokens) public returns (bool success) {\n\t\tbalances[msg.sender] = balances[msg.sender] - tokens;\n\t\tbalances[to] = balances[to] - tokens;\n\t\tTransfer(msg.sender, to, tokens);\n\t\treturn true;\n\t}\n\n\t// Token owner approves spender to 'transfer from' account\n\t//     function approve(address spender, uint tokens) public returns (bool success);\n\tfunction approve(address spender, uint tokens) public returns (bool success) {\n\t\tallowed[msg.sender][spender] = allowed[msg.sender][spender] + tokens;\n\t\tApproval(msg.sender, spender, tokens);\n\t\treturn true;\n\t}\n\t//     function transferFrom(address from, address to, uint tokens) public returns (bool success);\n\tfunction transferFrom(address from, address to, uint tokens) public returns (bool success) {\n\t\tbalances[from] = balances[from] - tokens;\n        allowed[from][msg.sender] = allowed[from][msg.sender] - tokens;\n        balances[to] = balances[to] + tokens;\n        Transfer(from, to, tokens);\n        return true;\n\t}\n\n\t// Users:\n\t// Must be able to burn their tokens\n\t// This amount would be subtracted from totalSupply\n\tfunction burnToken(address burnerAddress, uint tokens) public returns (bool success) {\n\t\tif (tokens > balances[burnerAddress]) {\n\t\t\treturn false;\n\t\t} else {\n\t\t\ttotalSupply -= tokens;\n\t\t\tbalances[burnerAddress] -= tokens;\n\t\t\tTokensBurned(burnerAddress, tokens);\n\t\t\treturn true;\n\t\t}\n\t\t\n\t}\n\n\t// Must work in conjunction with Crowdsale.sol\n\tfunction addToken(uint amount) public returns (bool success) {\n\t\ttotalSupply += amount;\n\t\treturn true;\n\t}\n\n\tfunction subtractToken(uint amount) public returns (bool success) {\n\t\ttotalSupply -= amount;\n\t\treturn true;\n\t}\n\n\tfunction addToBalance(address buyer, uint amount) public returns (bool success){\n    \tbalances[buyer] += amount;\n\t\treturn true;\n  \t}\n\n  \tfunction removeFromBalance(address seller, uint amount) public returns (bool success) {\n    \tbalances[seller] -= amount;\n\t\treturn true;\n  \t}\n\n\t// function remainingSupply() public returns (uint) {\n\t// \treturn remainingSupply;\n\t// }\n\t\n\t\n\t\n\n}\n",
  "sourcePath": "/Users/jasminesingh/blockchain-for-developers/midterm-p1-1/contracts/Token.sol",
  "compiler": {
    "name": "solc",
    "version": "0.4.19+commit.c4cbbb05.Emscripten.clang"
  },
  "schemaVersion": "2.0.0",
  "updatedAt": "2018-03-06T20:51:15.215Z"
}